:020000040027D3
:1004000070B52948002426468460284800F056F834
:10041000274D4FF448106E626E63066025480168F0
:020000040031C9
:1004040000000000000000000000000000000000E8
:1004140000000000000000000000000000000000D8
:020000040027D3
:1004200021F00701016001684907FCD14FF0081174
:10043000016021491720086000F0C0FD01F0D6FAE4
:1004400010B10120A87001E000F088FE01F082F8F0
:1004500003F068FA00F02FFD2E634FF400760BE0F6
:1004600000F04AFC0446686901281AD0022803D02B
:10047000002001F083F908B1002CF1D00C49287953
:10048000491C583008700A4800220121401C03F022
:10049000F1FABDE87040002201231146501E00F021
:1004A00034B83046E5E70000009032002007210014
:1004B000BC3D2700B8043200AC833300854670474A
:1004C00000470000FB490968496881421CD1FA488D
:1004D0000121C160F94B4A051A604FF41C13F84A18
:1004E0001A604FF444134FF06E021A60F54A11601F
:1004F000F5490A6822F400720A604FF4A0610160B5
:100500004FF003018160FEE7704710B500204FF403
:100510007A51401C8842FCD303B90022EB480168A1
:1005200021F02201016042F0010C6046FFF7CAFF92
:10053000BDE810406046FFF7C3BF10B500F049FEAC
:1005400038B101F057FA20B101F0DCF908B101200F
:1005500010BD002010BD70B5DD4E0024A6F10F05C2
:100560000DE0A878315D0028E869204402D001F050
:1005700043FA01E000F04BFE002804D0641C286A16
:100580008442EEDB012070BD30B5002306E0C45C80
:10059000CD5CAC4201D0002030BD5B1C9342F6DB49
:1005A000012030BD10B5CA4C0F3CE2692AB1226A65
:1005B000002A12DB032A10D002E00022C4E907025D
:1005C000C34B9954E1691144814212D1521CC14973
:1005D0001846FFF7D9FF50B901E0002010BD226A8C
:1005E000BC49521CC91CBA48FFF7CEFF08B1012014
:1005F00000E000200028206A03D0401C2062012077
:1006000010BD002801DDFFF7A6FF4FF0FF3020628C
:10061000E3E770B50D46AE4E044600F1807101204F
:100620000F3EB1F1807F12D2B07129462046FFF70C
:10063000B9FFD0B9B07829460028204603D0BDE8DC
:10064000704001F0D9B9BDE8704000F0E0BDA4F5FC
:10065000A001B1F5802F06D2B07129462046BDE831
:10066000704000F099BF25702078012070BD70B5F2
:1006700005460E462EE003F0D4F9A0F13001092919
:1006800001D800010EE0A0F14101052903D80001C5
:10069000A0F55C7006E0A0F1610105291ED80001FB
:1006A000A0F5AE60C4B203F0BCF9A0F13001092995
:1006B00001D80C430BE0A0F14101052901D83738DE
:1006C00004E0A0F16101052908D85738044305F872
:1006D000014B761E002ECED1012070BD002070BDD2
:1006E00038B57B4C44F620650F3C1CE02581E07852
:1006F0004C281DD001216846FFF7B9FF002816D00D
:1007000060799DF8001008446071E06AFFF781FF8E
:1007100000280CD0E06A401CE0626089401E6081C5
:10072000206B401C206360890028DFD1012038BD88
:1007300003F077F98DF80000E2E710B503F071F9E6
:10074000FC2806D103F06DF9614C0F3C0428608150
:1007500001D2002010BD03F064F9E06203F061F9FA
:10076000E16A41EA0020E06203F05BF9E16A41EAF4
:100770000040E06203F055F9E16A41EA0060E0629E
:100780006089001F6081012010BD10B503F049F998
:10079000FC2824D103F045F9062820D103F041F9C3
:1007A00003F03FF903F03DF9494C0F3CA06103F021
:1007B00038F9A16941EA0020A06103F032F9A1698A
:1007C00041EA0040A06103F02CF9A16941EA006010
:1007D000A0614149401E884201D2012010BD002085
:1007E00010BD00B589B084460E208DF800000820A9
:1007F0008DF8010001208DF80200CC208DF8030057
:10080000FC208DF8040000208DF805000CF18070AC
:100810006B46B0F1807F0ED22D4A0F3A9278002AB3
:100820000A46014603F1060002D001F0E9F80CE0A7
:1008300000F014FD09E0ACF5A000B0F5802F0ED259
:100840000A466146981D01F068F8002805D001228B
:100850000A21684603F00EF9012009B000BD00200E
:10086000FBE710B501F04EF8002813D0FFF773FE38
:1008700000280FD000F0ADFC20B101F0BBF808B1AA
:10088000012400E0002412480F38807808B101F0FC
:10089000BBF8204610BD70B5FFF7E3FF002808D075
:1008A00003F0BFF8FC2803D103F0BBF8082815D0EB
:1008B000002070BD08ED00E00090320080E100E013
:1008C000FEE7FEE7040431004881330020043600CF
:1008D000CB3D2700A03C2700FF117A0003F0A1F8D0
:1008E000044603F09EF844EA002403F09AF844EA30
:1008F000004403F096F844EA006503F092F80446D9
:1009000003F08FF844EA002403F08BF844EA004433
:1009100003F087F844EA00612846FFF762FFC0B29F
:10092000C7E710B503F07DF8FF2803D103F079F88D
:10093000012801D0002010BDF848807820B103F0D4
:1009400070F801F055F803E003F06BF800F025FCB7
:100950000028F0D0012010BD10F180720ED3EF48B6
:100960000023C3615B1E0362807810B1104601F062
:1009700049B869B94FF4004000F0B0BCA0F5A0023E
:10098000B2F5802F04D209B101F018B801F006B811
:100990000020704710B503F044F8FF2803D103F09E
:1009A00040F8042801D0002010BD03F03AF8DB4CD9
:1009B000E06203F036F8E16A41EA0020E06203F009
:1009C00030F8E16A41EA0040E06203F02AF8E16AA7
:1009D00041EA00600121E062FFF7BEFF0028E3D09A
:1009E000012010BD10B503F01CF8CC4CFF2803D03B
:1009F000207948B9012006E003F013F8042805D057
:100A0000207908B902202071002010BD03F009F8F8
:100A1000E06203F006F8E16A41EA0020E06203F0D8
:100A200000F8E16A41EA0040E06202F0FAFFE16AA0
:100A300041EA0060BA49E062884202D14FF4A00066
:100A4000E0620021FFF788FF0028DED0012010BD02
:100A5000B448016841F060010160B2480C3001689F
:100A6000C907FCD0704710B5FFF7FBFE00280AD07D
:100A700002F0D7FFFC2805D102F0D3FFA74C0428D1
:100A8000608101D0002010BD02F0CBFFE06202F0D7
:100A9000C8FFE16A41EA0020E06202F0C2FFE16AB9
:100AA00041EA0040E06202F0BCFFE16A012241EA53
:100AB00000609A49E0623831E078C87097480621B2
:100AC000383002F0D7FF0020E062FFF7C1FFE06A94
:100AD000FFF7F8FCE06A012300214268E262606AE5
:100AE000FFF713FD012010BD30B50C46C1B00E213B
:100AF0008DF80010FB2C02D9002041B030BD211D23
:100B00008DF8011001218DF802104D218DF8031090
:100B1000FC218DF8041000218DF8051000F1807182
:100B20006B46B1F1807F0CD27C4822468078002849
:100B300003F1060002D000F061FF0CE000F015FBAD
:100B400009E0A0F5A001B1F5802F07D201462246A9
:100B5000981D00F0D9FE0028CFD008E0002104E065
:100B60005D1810F8012BAA71491CA142F8D301228B
:100B7000A11D684602F07EFF0120BEE710B5FFF719
:100B800070FE002808D002F04CFFFC2803D102F0D0
:100B900048FF052801D0002010BD02F042FF5F4C45
:100BA000E06202F03EFFE16A41EA0020E06202F00A
:100BB00038FFE16A41EA0040E06202F032FFE16A98
:100BC00041EA0060E06202F02CFF0146E06ABDE805
:100BD000104089E770B5514804212830FFF747FDE0
:100BE00000286ED04D4C4D4D283420786178A37884
:100BF000E27801441344194469716881B4F8011022
:100C0000002A49BAE96271D00026022A06D0042AD5
:100C100018D0052A2AD0012A46D051E0E9BB022883
:100C20004ED13E4802212830FFF721FD002848D050
:100C3000207861786B7942181A4400036A7140EA9F
:100C4000011011E049BB02283AD134480221283072
:100C5000FFF70DFD28B920786178084469790844C8
:100C60006871208840BA000468631BE0A9B90428B1
:100C700026D12A4804212830FFF7F9FC002820D08B
:100C800020786178A2780144E078024411446A79BE
:100C900011446971216809BA00E011E021F0FF01F7
:100CA000014369636E8121E0014309D11B480121A1
:100CB0002830FFF7DCFC002803D02078FF2801D083
:100CC0000020F6E5FFF7CDFD0028FAD013492E20CD
:100CD000491C0022087011480121401C02F0CAFE84
:100CE000002201231146501EFFF70FFC696BE86AD2
:100CF0000844E8620120DCE570B5084E0224307833
:100D000040F001003070706910B101280CD018E07B
:100D100002F09AFEF0704C2812D012E0BC3D270081
:100D2000EFEEBEFC1C04360002F097FE002839D01E
:100D300002F08AFEF0704C2802D0032070619EE021
:100D400074613078002500F0800030707581706922
:100D5000F24C032809D068B10CD0FFF7EEFC002854
:100D600075D0706A002873D093E0002000F006FD73
:100D7000C8B17561F0780D2844D00A287FD03A2890
:100D800013D04D2816D04E2819D0CE281CD05E285E
:100D90001FD0E52822D0CC2825D0182828D05728C5
:100DA0002ED00F2085E5012083E5FFF713FF10BB50
:100DB00004207EE5FFF7E2FEE8B9062079E5FFF7BB
:100DC00052FEC0B9072074E5FFF70CFE98B9082061
:100DD0006FE5FFF7DFFD70B909206AE5FFF7A1FDB8
:100DE00048B90A2065E5FFF756FD20B90C2060E5FB
:100DF000FFF7CBFC10B1706A28B108E00E2058E56F
:100E0000802030703BE0708908B1F06A7062C3499D
:100E1000F0783739572812D03A280FD0CE2818D07A
:100E20005E2816D0E52814D018281DD04D2826D0CD
:100E3000CC2824D0ED2822D015203AE52E200870A9
:100E4000B64800220121373802F014FE17E01AE0FC
:100E50001BE0E070FF20207101220621AF4802F064
:100E600009FEFC2020710AE0E07001220621AB4857
:100E700002F000FEB06902F0BFFD10B1B5610020C4
:100E800017E5142015E5052013E5708908B1F06A0F
:100E90007062FFF725FC50B101207061FFF74DFB38
:100EA00038B1F078E070012206219C48CCE7102090
:100EB000FFE41120FDE430B5994B9A4C002108461F
:100EC0000022C50702D083EA500000E04008521C0F
:100ED000082AF6D344F82100491CFF29EFD930BD78
:100EE0004FF448114FF0050C0968C90401D54FF0C3
:100EF0000A0C002305E062461100A2F10102FBD1B9
:100F00005B1C8342F7D37047874900B503204860D4
:100F1000002211461046C0F10F0342FA03F303F01A
:100F2000010383401943401C1028F4DB4FF44810A0
:100F30001722026441649620FFF7D2FF7B480168C4
:100F400021F0300141F01001016000BD78490A68CC
:100F500042F080020A600A6822F080020A60724948
:100F60004FF000024A60734B4B610A64724ACA60D8
:100F7000724AB2FBF0F040F0807088604FF4641069
:100F80008861704710B54FF44E14D4F86001C00664
:100F90000CD445F6C050FFF7D9FFFFF7B5FF0A2084
:100FA000FFF79EFF4FF4E13002F026FD0020C4F869
:100FB0003801C4F83C01C4F8D80210BD574930B418
:100FC00038390020087101230B7044F620620A8131
:100FD00001F10C02402414703024547031249470B8
:100FE0002C320E241470042454709370FC2313715B
:100FF0005071534A887088711070421EC1E907020F
:101000005049087030BCBDE7B0F5801F0AD36FF4BB
:1010100000114D4A0144914204D3A0F5A001B1F55D
:10102000802F06D228B1411C03D0C00701D0012077
:10103000704700207047464910B54448086037495A
:101040003839087818B144F62060088110BD088945
:10105000401E0004000C0881F8D130495A2037396D
:10106000002208702D480121373802F003FD0022CC
:101070000123BDE810401146501EFFF746BA70B577
:10108000054600244FF4FA6606E00020401CB042FA
:10109000FCD3FFF7D0FF641CAC42F6D309E44FF455
:1010A0004812106800F00F014FF44E10D0F8603174
:1010B000C3F30113012B24D0D0F8600110F0300FDE
:1010C00002D04BF6803001E045F6C0501268D204E1
:1010D00014D4052913D2DFE801F0030507090B003A
:1010E000022106E0032104E0042102E0062100E0E1
:1010F00008210844A0F1010090FBF1F070470120A5
:1011000070471068C00401D5124870471248405C0F
:101110004FF47A7110FB01F070470000F43D270096
:101120002083B8ED00002100001032006081330000
:1011300004013200171000010000020450C97FBBF7
:10114000143E2700FC3D2700FEDF01000024F400D0
:101150000090320000770100A63C270010B500F097
:10116000FEF87A490020087010BD38B50546080A17
:101170008DF8000014468DF80110A0220221684667
:1011800000F0CEF9012806D1A0222146284600F021
:10119000D0F9012800D0002038BD08B500F0F7F8DC
:1011A000012200216846FFF7E0FF08BD70B500246A
:1011B0004FF4FA6504E0641CAC4201D1002070BD1C
:1011C000A0220221002000F0ABF90328F3D0012077
:1011D00070BD3EB55D4C2178B9B160680223020A4A
:1011E0008DF808208DF809000122A020CDE9000229
:1011F00002AA04F1080000F04CF903284FF00000A7
:1012000002D02070FFF7D2FF3EBD01203EBD2DE988
:10121000F0414E4E04460D463078002740B17168CB
:101220000844A04205D0FFF7D4FF002814D037703F
:1012300074604649307808310D54401CC0B230709B
:1012400071680144090701D0062804D1FFF7C1FFE6
:10125000002801D037700120BDE8F0812DE9FE4360
:101260000746080A8DF8000015468DF801104FF06A
:10127000FF34A0220221684600F052F9012802D072
:101280000020BDE8FE830DF10408DFF8C49019E0EA
:10129000082D01D9082000E02846C6B2A022314618
:1012A00001A800F046F9002041464A4607E00B5CE1
:1012B0006340DBB2401C52F8233083EA1424B0426E
:1012C000F5D3AD1B002DE3D1E0433870010A7970EE
:1012D000010CB970000EF8700120D2E72DE9F84F2B
:1012E0000546FF210020FFF792FF012444F6206607
:1012F000184F4FF0FF08A1464FF0CE0A20E02046DD
:10130000641C0021FFF783FF00281CD0600600D179
:101310003E80A00514D1012200216846FFF725FF79
:10132000002810D09DF8000060B18DF800808DF885
:1013300001908DF802A001220321684602F09AFB79
:10134000AC42DCD30120BDE8F88F0000FC3D270053
:1013500000002100C43D2700401EFDD2704779489F
:10136000816921F0770181610168774A01EA020110
:10137000764A41EA020101604FF459114FF0000032
:10138000C861734948704FF0100008707047704989
:101390000A7822F0300202430A70704710B54FF409
:1013A0005911C869C0B2820717D50022CA61400727
:1013B00001D5032010BD664AD07860B10020536883
:1013C00006E001EB800494F830411C54401CC0B28C
:1013D000D478A042F5D3012010BD002010BD10B577
:1013E000002404E0641C600701D1FFF724FEFFF72E
:1013F000D5FF0028F6D010BD10B54FF45910C069C4
:10140000C00705D0FFF7EBFF5149887001204870F5
:1014100010BDF0B54FF45916DDE9054C4FF0000E44
:10142000C6F81CE0346053B1002406E0155D06EBFD
:101430008407641C87F83050E4B29C42F6D35FEA1C
:101440000C02DFF80CC105D0CA18D4B28CF803E046
:10145000002213E0CCF804008CF803100C460120A5
:101460007BB143EA0110C4B203200AE0D718855CBF
:1014700006EB8707521C87F83050D2B28A42F5D368
:1014800000209CF8001074610843B0610120F061F5
:10149000F0BD2DE9F04380462DED028B83B00D4663
:1014A00016461F469DED0C8ADDF83490FFF7A4FF29
:1014B0002EE00821B9F1010F02D1C7F10800C1B235
:1014C0008D4200D2E9B28DED008A0C463B46324691
:1014D0004046CDF80490FFF79CFFFFF780FF0128FE
:1014E00019D1281BA04485B297B1781EC0B2315CD7
:1014F0002144C9B23154A1420AD207E0401EC0B211
:10150000315C491C11F0FF01315401D10028F5D1A3
:10151000002DCED1012003B0BDEC028BBDE8F083DD
:101520001CB50123CDE9002300231A46FFF7B1FFC4
:101530001CBD1CB50023CDE900231A46FFF7A9FF07
:101540001CBD000074003200FFFFC0C000000A0A8A
:101550000C3E27000020FD4A01464FF40073115451
:10156000401C9842FBD3FA48017000F093BA30B5A2
:101570004FF0FF330022F74C07E0855C5D40EDB291
:10158000521C54F8255085EA13238A42F5D3D843D8
:1015900030BDC0F3160070472DE9F05FDFF8B0836F
:1015A000A0F5A0074246D8F804000E467D0ADFF8F1
:1015B0009CB39368C7F30804411C4FF0010A4FF035
:1015C000000910D0012B0ED011460BF580678969F8
:1015D000A8424BD1F1B33E55D8F82800844201D936
:1015E000C8F82840C8E00022C1464146C8F8182083
:1015F000012B11D18A60A8420ED14FEA45285A0228
:10160000D5494046C9F80CA000F04CFA4FF40071DF
:10161000404600F06EFA04E04FF40071CE4802F04C
:10162000C4FACD4800210655C9F82410C9F81C5049
:10163000C9F810A0C9F80450C9F82C101BF805000F
:101640005C46002808D14FF40071384600F051FA8A
:10165000FF2000E001E060558EE0BF480655D8F855
:101660002400844201D9C8F8244085E059B1D8F853
:101670001000002874D0D8F81C20C2F316001BF804
:10168000000088B33DE0D8F8140008B3D8F8202053
:10169000C2F316001BF8000058B950024FF4007155
:1016A00000F027FAD8F82000FF22C0F316000BF84C
:1016B0000020D8F820004FF4007B40025A46A7498A
:1016C00000F047FB002844D05946A44802F06DFAC8
:1016D0003E55C8F82890C8F814A0C8F818A0C8F853
:1016E0003090C8F8205045E0FFE750024FF40071F9
:1016F00000F0FFF9D8F81C00FF22C0F316000BF829
:101700000020D8F81C004FF4007B40025A46924952
:1017100000F01FFB00281CD0D8F80C0001281BD1BA
:1017200059468D48C8F80C90FFF721FF07465946E7
:10173000894802F03AFAD8F81C005A464002864915
:1017400000F0B0F959468448FFF711FFB84203D0C2
:101750000020BDE8F09F03E059467F4802F025FADB
:101760007D480655C8F82490C8F810A0C8F82C90F9
:10177000C8E90695C8F804500120EAE72DE9F05FB2
:10178000734EC01C20F00304704FB0694FF0010885
:101790004FF0030A4FF0FF0900254FF4007B48B1DA
:1017A000306900287BD0F069C0F31601795C00290C
:1017B00064D06CE0706920B3306AC0F31601795CC4
:1017C00041B94002594600F094F9306AC0F316005E
:1017D00007F8009024B1306BB16A2044884201D3ED
:1017E000756101E0C6F814A0306A5A4640025B49B0
:1017F00000F0AFFA0028ACD0706920B1306B204403
:10180000306314B17CE0B06AFAE73069002875D023
:10181000F069C0F31601795C41B94002594600F005
:1018200068F9F069C0F3160007F80090F0695C46AB
:1018300040025A46484900F08CFA002889D0F068E6
:10184000012817D121464448F560FFF790FE07466E
:101850002146414802F0A9F9F069224640023E497A
:1018600000F020F921463C48FFF781FEB84201D044
:1018700000206EE735617562F5623FE0400259462F
:1018800000F037F9F069C0F3160007F8009024B1B2
:10189000F06A716A2044884202D3356102E00EE0AA
:1018A000C6F810A0F0695A4640022B4900F051FAE0
:1018B0000028DED0306920B1F06A2044F06214B113
:1018C0001EE0706AFAE77069C0B1306AC0F31601B1
:1018D000795C41B94002594600F00BF9306AC0F317
:1018E000160007F80090306A5A4640021B4900F083
:1018F00030FA0028BDD07561B56235630120B06053
:10190000404626E701207047034610B5C1F3110099
:10191000194600F01FFAC0B210BD2DE9F04106468D
:101920000F480C4617464FF0FF3581420BD20D4849
:101930000068012807D142020B494FF4A00002F0D1
:10194000C3F800B9094C002002491AE0240721001D
:10195000143E27000000210024092100240B21004F
:1019600000025000483E270090112100900F2100F6
:1019700014F8012B6A40D2B2401C51F8222082EAAE
:101980001525B842F4D3E8433070010A7170010C98
:10199000B170000EF0700120BDE8F08110B500F0CC
:1019A000CDF810F0FF0008D000210F4BFF224FF4BC
:1019B00000745A54491CA142FBD310BDA0F5A000ED
:1019C000094B10B5410AFF225A544FF4007100F040
:1019D00090F8C0B210BD10B5C0F31100042200F0A1
:1019E000B9F9C0B210BD00002407210000207047E3
:1019F0000120704701207047002070470020704789
:101A000000207047002070470120704770472DE983
:101A1000F0410D46811E062902D30020BDE8F08169
:101A2000CF4E0021A6F50074C6E904103462CD48FB
:101A3000B162F060FFF733FB4FF47A71B0FBF1F065
:101A4000C4F84801304600F036FE00244FF4007719
:101A500028197062C24801F03CFF04F50074BC42D2
:101A6000F6D30120DAE7BE4810B5002101614161DB
:101A70008162A0F50071016201F006F8012010BD3D
:101A800070B50546002402E001F0BEFE641CAC42C5
:101A9000FAD370BD10B501F0C8FE0446FFF7E3FFAE
:101AA000204610BD70B50446154628440E46B0F5D4
:101AB000802F09D845B14FF4007294420CD2AA4845
:101AC0000068012802D007E0002070BDA7494FF44C
:101AD000A00001F0F9FF38B12A4604F5A001304614
:101AE00002F01EF8012070BD9D492A466C31F6E7D0
:101AF000D8E72DE9F04104460D004FF000008DD0ED
:101B0000974EA6F50077306170613762B062FFF7DB
:101B1000C6FA4FF47A71B0FBF1F02544C7F84801DA
:101B200008E0600AF0608E4801F0CBFE002804D087
:101B300004F50074AC42F4D301206FE710B5884877
:101B40000021A0F500740161416181620462C160FD
:101B5000FFF7A5FA4FF47A71B0FBF1F0C4F8480131
:101B6000BDE810407E4801F0CCBEF0B50024FF2651
:101B700003253746234610223CE033B1012B0BD01E
:101B8000022B0ED0032B32D11BE0865C0A2E01D92A
:101B9000FE2E31D101232CE0875C032F2CD80223A9
:101BA00027E0845C230605D5521C04F07F03845C87
:101BB00043EAC4140323E4B90023FE2E19D1DFB194
:101BC00017E0641E002C14DC0023032E02D0062E26
:101BD00005D008E0012F06D125F0010503E0012F13
:101BE00001D125F0020505B90423FF263746042B51
:101BF00002D0521C8A42C0D30DB10120F0BD00209A
:101C0000F0BD2DE9FE4F81460846114604465FEAC5
:101C100089720DD109EB0102B2F5802F08D839B1D4
:101C2000DFF844B1B9F1000FCBF8049003D06EE0B7
:101C30000020BDE8FE8FFFF798FF002867D04CA07A
:101C4000D0E90010CDE900104BA0D0E900A002902F
:101C5000257B01F035FF064601F034FF304400EBF0
:101C6000050808F1070801F02BFF0127861DCBF8B6
:101C700000707F2E09D946F0800060F3174AC6F342
:101C8000C710022760F31F6A01E08DF80260344834
:101C900008EB070BABF1010B4FF4007221466C30DF
:101CA00001F03EFF4FF010082D1D3E446D1E01F067
:101CB00009FF3044284408EB05012044615C81742D
:101CC000002DF3D1012F04EB080039D0C0F800A09B
:101CD0000299416008EB0705AD1D01F0F1FE0246D7
:101CE0006019274901F01CFF01F0EAFE0544AD1C14
:101CF00001F0E8FE02466019224901F011FFC4F824
:101D00000CB04FF400722146184801F009FF144D41
:101D10000020A5F50076286168612E62A862FFF7B1
:101D2000BEF94FF47A71B0FBF1F0C6F848014FEA02
:101D300059206C62E860284601F0CBFD012078E76D
:101D400000990160BDF8041081809DF80610817132
:101D5000C0E756E7A6E6CCE601207047A2E6000001
:101D6000240F210001000080483E2700901121002F
:101D70000301EC00302700000301ECEC00302700E9
:101D8000553E2700613E2700F8480068C0F3006018
:101D90007047F6480068C0F340607047F3484068F9
:101DA00000F001007047F1484068C0F34000704700
:101DB000EE484068C0F380007047EC484068C0F3CC
:101DC000C00070474FF0FF3101E04008491C002877
:101DD000FBD108467047014630F0FF0012D0CB43DC
:101DE000C8B2C3F307221B0EC1F30741904203D1CF
:101DF000884208D0984206D0994205D1814201D04C
:101E0000914201D1084670474FF000407047D748D3
:101E1000C06800F00F010120884080087047D34857
:101E2000C068C0F303110120884080087047CF4983
:101E300028B10869C0F30F2040F007007047C86858
:101E4000C0F30F207047C94910B10869000E7047F0
:101E5000C868000E1F28FAD100207047C349002827
:101E6000086802D040F0807001E020F080700860C7
:101E70007047BE490028086802D040F0007001E0B9
:101E800020F0007008607047B84B1A6800F00F002F
:101E900001F003016FF30F0240EA012010431860C4
:101EA0007047B24A116800F0030021F4407141EA22
:101EB000002010607047AD498A686FF30F028A6096
:101EC0008A6880B202438A60704700B90120C0F37B
:101ED0000E0100F4004041EA400040F00041A348F8
:101EE00042696FF31002426142690A4342617047DE
:101EF00000B90120C0F30E0100F4004041EA4000A7
:101F000040F02041994842696FF3100242614269F2
:101F10000A434261704700B90120C0F30E0100F48A
:101F2000004041EA400040F04041904842696FF370
:101F30001002426142690A43426170478B4A9169CB
:101F400000F0070021F4E06141EA00209061704751
:101F5000864AD169C0B221F0FF010843D0617047C1
:101F6000824AD16900F00F0021F4702141EA00405B
:101F7000D06170477D4AD16900F00F0021F0706197
:101F800041EA0060D06170477848C16941F0804102
:101F9000C161C16921F08041C16170477349CA695B
:101FA00042F08042CA61CA6922F08042CA61C864B4
:101FB00070476E4A516A00F01F0021F01F0108436C
:101FC00050627047694AD16D00F00F0021F00F0197
:101FD0000843D0657047654AD16D00F0010021F0DB
:101FE000100141EA0010D0657047604A116D00F0A1
:101FF000070021F4604141EA4030106570475B4AB8
:10200000916D00F0070021F0E00141EA4010906579
:10201000704757490A6800F00F0322F4702242EA21
:1020200003420A600A6C00F0100022F4800242EAC7
:102030008040086470474D4A916D00F01F0021F008
:102040001F01084390657047484A116D00F01F005A
:1020500021F4F85141EA00201065704743490A6DA8
:1020600000F0070322F0E00242EA43120A654A6DDB
:10207000E02322F0E00203EA400002434A65704791
:10208000F0B502460120FFF7D2FE05460120FFF71A
:10209000DAFE06460020FFF7CAFE04460020FFF7DE
:1020A000D2FE0346D068DFF8CCC000280EDA20F05C
:1020B000004101291FD8400001D02C463346106949
:1020C000984218D85069A04215D820E02046FFF762
:1020D00079FE411C03FA01F72743D0687F1CB84200
:1020E00017D3C01B06FA01F32B43984203D800EA2A
:1020F0000403AB4203D9C2F808C00020F0BD20FAA7
:1021000001F11D4B3140D360116128405061012025
:10211000F0BD20FA01F14FF000451940D560116182
:102120002040F3E700B58446144B002205E00CEB99
:102130008200006843F8040B521CFFF770FE9042C7
:10214000F5D800BD10B50446FFF79AFF00280CD063
:10215000E0682169C007C009C9B240EA014061696D
:1021600089B2084301498860012010BD00F0580081
:1021700050F05800040000F00100008000F8580002
:1021800010B5FC4A002152F8043B00EB8104491CC5
:1021900023608029F7DBE8E710B5FFF7F5FD8446FB
:1021A0000120FFF75BFEF44BF24AFFF738FE0021F7
:1021B00004E052F8044B43F8044B491C8142F8D325
:1021C000BDE81040604649E630B50446FFF7BAFF67
:1021D000002816D0FFF7D8FD05460120FFF73EFE88
:1021E000E64900208863E34AE34B0146D2F800C089
:1021F0001868844506D0E248A0602846FFF72EFE06
:10220000002030BD121D1B1D491C8029EED34FF04C
:102210002040A0602846FFF721FE012030BD00B518
:1022200000210846FFF730FED44800218163016891
:1022300021F04071016000BDD0490028086802DA31
:1022400040F0007001E040F080700860704710B509
:1022500004684068FFF7BFFD84462046FFF7BBFDDA
:102260000CF00041084340EA0C207EE72DE9F04FD6
:10227000C24E456885B0D6F858B082464BF48020EF
:10228000B065D5F84801FFF7A6FD7063044601204C
:10229000FFF707FE05F1F800FFF7D9FF0346FFF748
:1022A0003AFE44EA030000F0004705F58070FFF7AE
:1022B000CEFF0446FFF772FD0028FBD11FB1384660
:1022C00005B0BDE8F08F0220FFF7EBFD2046FFF7D9
:1022D00022FEDAF8001005F584700291FFF7B7FFCF
:1022E000009005F58870FFF7B2FF0190D5F8440122
:1022F000FFF771FD40F400410391D5F84001FFF76D
:102300006AFD0490D5F8D801FFF765FD02990546EE
:102310000C43009904980C4301990C4303990C4316
:1023200004432C43716904F0004911F0007F00D090
:102330006D009249CE69370E0023C6F3074C1C4648
:10234000984625B10846C1698E4A1140C161FFF720
:1023500025FD0028FBD1B9F1000F53D125BB26E0A4
:102360000398FFF7C5FD2B442C44BB4200D93B46E4
:10237000644500D9644683480640180640EA044094
:102380000643FFF70BFD0028FBD17C48C66104988B
:10239000FFF79BFDBB4203D1644501D14FF001081B
:1023A000FFF7FCFC0028FBD1B8F1000FD8D0DAF819
:1023B000080060B1714B0120D86358640298FFF7A0
:1023C00097FDDDE9000140EA014018631AE0029838
:1023D000FFF78EFDFFF7E2FC0028FBD10098FFF726
:1023E00074FDFFF7DBFC0028FBD10320FFF759FD4C
:1023F0000198FFF790FDFFF7D1FC0028FBD15F4863
:10240000C0F858B048465BE710B5FFF7C7FC002896
:10241000FBD15A4C60640120E063206B80B2FFF76F
:1024200054FDFFF7BBFC0028FBD10320FFF739FD6B
:10243000206B000CFFF76FFDFFF7B0FC0028FBD10D
:10244000FFF7EDFEA06D20F48020A06501208CE652
:10245000F0B58168D0F80CC0046945698669084602
:10246000FFF7B9FC07466046FFF7B5FC84462046F7
:10247000FFF7B1FC04462846FFF7ADFC05463046A1
:10248000FFF7A9FC06463846FFF774FD6046FFF7E4
:1024900067FD2046FFF7E2FD2846FFF74FFD304677
:1024A000FFF756FD47EA0C0727432F43374307F052
:1024B0000040F0BD30B58168D0F80CC00469084612
:1024C000FFF789FC05466046FFF785FC84462046F9
:1024D000FFF781FC04462846FFF74CFD6046FFF7F6
:1024E0003FFD2046FFF7BAFD45EA0C00204300F00F
:1024F000004030BD2DE9FE41056804462846FFF73F
:1025000021FE38B3A068FFF797FEA068002120F0F5
:102510000040A060FFF7B8FCDFF860800020C8F83A
:1025200038002E6A606806EB80073846FFF790FF98
:1025300004463846FFF78BFECDE9000640EA040763
:10254000D8F8604068460294FFF790FE40EA07061C
:102550001CB104E0FFF763FE08E0FFF760FE002E09
:1025600012DAFFF75CFE06486430A8600020BDE880
:10257000FE81000000FC580000F8580000F05800F0
:10258000220000F0FFFFF0F00120F0E72DE9FE4F00
:10259000D0F8008004464046FFF7D4FD002869D0FB
:1025A000D8F820706068019707EB800A5046FFF763
:1025B0004EFE0646E068FFF73FFEE068DFF8B8B47D
:1025C00020F00040E060B6B3DBF814005D4640F058
:1025D0000070CBF81400DBF8140020F08060CBF81A
:1025E0001400D7F84C01FFF7F6FB696946EA0009C9
:1025F00000F0010041EA806068614FF0FF30FFF7B2
:10260000CDFC5046FFF724FF0096002640EA090A59
:102610000296E0683146FFF737FCAE636846FFF785
:1026200025FE40EA0A06686920F000706861686962
:1026300040F080606861A06807EB80052846FFF7DE
:1026400039FF40EA06072846FFF701FE40EA070582
:10265000009020690021FFF717FC0021CBF838100B
:10266000DBF8604068460294FFF700FE40EA05068A
:102670001CB104E0FFF7D3FD08E0FFF7D0FD002E0A
:1026800007DAFFF7CCFDFD48C8F808000020BDE8D8
:10269000FE8F0120FBE710B50446FFF7F1FC002890
:1026A00006D0E068400004D0F4486538A0600020FF
:1026B0005BE5012059E500B5816A85B009B14FF0AD
:1026C00000410090002001902A20029041F00B0070
:1026D0000390072004906846FFF758FF05B000BD3F
:1026E00010B585B00446FFF7CBFC002812D00020BF
:1026F0006061A06A08B14FF000400721CDE90041B8
:10270000342140F00D00CDE9021009200490684604
:10271000FFF73CFF05B028E510B585B00446FFF78C
:10272000AFFC0028F6D0606920F007006061A06A65
:1027300008B14FF000400721CDE900412F2140F0C2
:102740000600CDE90210082004906846FFF71EFF3E
:10275000E0E710B585B00446FFF79DFF0028D9D00B
:102760000020E060206160610E20CDE9004039204A
:1027700002900F2003900A2004906846FFF706FF9E
:10278000C8E71EB50446806A08B14FF00040152125
:1027900040F00B000094CDE90110606A012801D9D6
:1027A000FFF7C0FC606A10B9E06AFFF7F7FB684604
:1027B000FFF7A0FE1EBD1EB50446806A08B14FF0AB
:1027C00000401C2140F00C000094CDE90110606A2B
:1027D000012801D9FFF7A6FC606A10B9E06AFFF78B
:1027E000DDFB6846FFF786FE1EBD1EB50446806A07
:1027F00008B14FF000401C2140F00D000094CDE9DD
:10280000011000206061606A012801D9FFF78AFC8D
:10281000606A10B9E06AFFF7C1FB6846FFF76AFE1D
:102820001EBD1EB50446FFF72BFC00281AD06069B8
:1028300020F007006061A06A08B14FF000401C2141
:1028400040F006000094CDE90110606A012801D92A
:10285000FFF768FC606A10B9E06AFFF79FFB684603
:10286000FFF748FE1EBD1EB50446FFF714FF002803
:1028700015D02320CDE900400E2002908007E060B3
:1028800000202061606A012801D9FFF74BFC606AD3
:1028900010B9E06AFFF782FB6846FFF72BFE1EBD0A
:1028A0001EB50446FFF7F7FE002816D02320CDE919
:1028B00000400F200290C007E060002020616061AE
:1028C000606A012801D9FFF72DFC606A10B9E06A3F
:1028D000FFF764FB6846FFF70DFE1EBD10B504460A
:1028E000FFF7E9FE002803D02046BDE8104048E786
:1028F0003BE410B50446FFF744FF002803D0204610
:10290000BDE8104060E430E400B5FFF7DEFAFFF701
:1029100045FA0028FBD100BD30B5FFF735FA8446F3
:102920000120FFF79BFA544B4FF080751D60002487
:102930009C63586A20F4007058622046FFF708FB39
:102940000220FFF7E1FFE81C18609C63FA20FFF704
:10295000DBFF1D609C63586A20F01F005862BDE8D1
:1029600030406046FFF77ABA30B504460D46FFF7AF
:1029700056FCD5F820C00020FFF7EAFA34B1DCF8A5
:102980002C01FFF728FAFFF769FB0BE0DCF82001C8
:10299000FFF721FAFFF762FBDCF81801FFF71BFADB
:1029A000FFF7E8FA344B4FF080701860586A40F235
:1029B0001F3188435862586A296B01F01F01214377
:1029C000084358620220FFF79FFF0020986302200F
:1029D000FFF79AFF586A40F400705862BDE8304033
:1029E000FA2091E730B5DFF898C0264D0024DCF8D6
:1029F0000000FFF7F0F955F82410814201D00020C3
:102A000030BD641C0CF1040C082CF0D3012030BD47
:102A100000B50021FFF7D1F908B1012000BD491C24
:102A20000F29F7D3002000BD00B50021FFF7BBF947
:102A300020B1491C0F29F9D3002000BD012000BDA1
:102A40000D484FF080710160491C81600021816355
:102A5000704710B5C1680269436907484FF0807438
:102A600004600906D2B241EA02419AB21143816080
:102A700000218163EBE4000000F05800860000F0C4
:102A8000E0FD5800B03C27002DE9F043FA49D0F8AA
:102A900020C005460968F94AC2604FF00002C1F340
:102AA000425102614161FFF7D4FF0127F44EDFF884
:102AB000D48300244FF000493068FFF78CF9484573
:102AC00002D10027C5F808800CEB8401361D641C78
:102AD0000860802CF0D3FFF7A2FB3846BDE8F083F6
:102AE00030B50446E548E0600021216101256561BB
:102AF0002046FFF7E0FD6562E34BD4F820C00021DB
:102B00000CEB81000068C2B2D043C0B242EA00259B
:102B100045EA024242EA006043F8040B491C80295E
:102B2000EED32046BDE830402BE62DE9F0470025E6
:102B3000064689469446984601272C464FF0004A9F
:102B40000CE03068FFF747F9504500D100270CEB47
:102B50008402126890400543361D641C4445F0D33E
:102B6000C9F800503846BDE8F0873FB50425012478
:102B7000C6482B46C64A6946FFF7D7FF00B900246E
:102B8000C2482B461030C24A01A9FFF7CEFF00B958
:102B90000024BE48BE4A20302B46103202A9FFF75F
:102BA000C4FF00B90024B948B94A072330302032A5
:102BB00003A9FFF7BAFF70B174B1AF480099883824
:102BC000016501994165029981650399C1650420F8
:102BD000FFF744FA00E0002404B0204630BDF0B511
:102BE00000252C460AE000EB840602EB84073668D9
:102BF000D7F800C006FA0CF63543641C9C42F2D3A9
:102C00000D60F0BD30B5D0F87C11D0F8782101F01E
:102C10000303D0F8CC1100F5A870890241EA032122
:102C2000954B1143083B002250F8044B01F001057D
:102C300044EA0524490850F804CB01F001054CEAA8
:102C4000052C44EA0C44490843F8044B521C052A5D
:102C5000EAD330BD70B5046A87490546042604F5F9
:102C6000C070383933468A4AFFF7B9FF824904F504
:102C7000C87034393346864AFFF7B1FF7E49844A2B
:102C800004F5D070303933461032FFF7A8FF042026
:102C9000FFF7E4F92046FFF7B5FF4FF02040A860AA
:102CA000012070BD2DE9F043784885B00838012532
:102CB0000068FFF790F84FF0004C0446604500D1E3
:102CC00000257248001F0068FFF785F8604500D1B5
:102CD000002500F003066D484C300068FFF77BF8D4
:102CE000604500D100258002684F40EA0626264351
:102CF000303F0024E046E9463868FFF76CF840456D
:102D000000D1002506F0010140EA012C760857F8B1
:102D1000040FFFF760F8404500D1002506F00101DF
:102D2000760840EA0120042C03D106F0030140EAB2
:102D300081304CEA004049F824003F1D641C4A469B
:102D4000052CD9D34DB14C490839002052F8203018
:102D500041F8043B401C0528F8D3284605B0BDE6E1
:102D60000020401C0F28FCD370470020401C042882
:102D7000FCD37047404A883AD16D00F0030021F43B
:102D8000C06141EA4020D06570473B4A883AD16D26
:102D900000F00F0021F4F07141EA4010D065704757
:102DA000354A883AD16D00F00F0021F4F04141EA34
:102DB000C020D0657047304A116800F0070021F448
:102DC000600141EA405010607047F0B502460020B3
:102DD000FFF739F8431C0020FFF729F8451CFFF7DF
:102DE0001EF80746D068146900F0010652692846AB
:102DF000FEF7E8FF84400EB183401C44224438466D
:102E0000FEF7E0FF8240900000F5A000F0BD30B575
:102E1000194C4FF08073883C2360194B03EB8103FE
:102E2000002105E053F8044B00EB8105491C2C60A0
:102E30009142F7D330BD10B50F4C4FF08073883CF2
:102E400023600F4B03EB8003002007E0D3F800C0A2
:102E5000944501D000202BE41B1D401C8842F5D373
:102E6000012025E410B5002303E000EB83045B1C84
:102E700022608B42F9D31BE488F0580001000080E7
:102E800000FC5800610000F000F8580080FD580078
:102E9000D03C27002DE9F0410446DDF818800D46AE
:102EA000B8F1000F40D0606BFFF752F82846FFF7EB
:102EB0002BFDFE4E002256F804CB03EB8200006887
:102EC00084452CD001258CEA000C00211CEA050F5A
:102ED00021D0B8F1000F29D0E06C322816D2676AF1
:102EE00000EB800007EB8000E76847F000470760D1
:102EF000276947F000474760676947F000478760E8
:102F000042F00047C76041F000470761E06C401C99
:102F1000E064E748A0606D00491C2029D6DB521C04
:102F2000802AC8DBBDE8F081A06BBDE7206D3228A8
:102F300018D200EB80008000676A00F5806038449A
:102F4000E76847F000470760276947F00047476098
:102F5000676947F00047876042F00047C76041F06B
:102F600000470761206D401C2065D2E7F8B50D468B
:102F70000446014616461F460020FFF7F5FC0020D8
:102F800000903B46324629462046FFF783FFF8BDB6
:102F9000F8B50D460446014616461F464FF48070AC
:102FA000FFF7E2FC802000903B463246294620464F
:102FB000FFF770FFF8BDF0B50F4615460646FFF760
:102FC000C1F8002823D0002280211046FFF733FFEC
:102FD00001281DD04FF0FF34224680210020FFF74A
:102FE0002AFF01281CD0802200212846FFF70FFF6E
:102FF0002B46022239463046FFF7CAFFFFF78CFC0A
:103000002B46022239463046FFF7B0FF0120F0BDC3
:10301000002280212846FFF725FF2B460022F1E7FA
:10302000224680212846FFF71DFF2B460122394604
:103030003046FFF7ADFFE9E72DE9F04FADF5017D33
:103040000446FFF71DF800284BD0206AD4F82C80E6
:10305000D0F83011D0F834510846FEF7BCFE0646D1
:103060002846FEF7B8FE46EA002000278090E76475
:103070002765C4F82C80E068266900F001026569C4
:103080001046FEF7E0FE83461046FEF7D0FE82466D
:10309000FFF742FC626A00204FF4806C02EB800371
:1030A000401C1F606045F9D3A765E765002714E061
:1030B0006A4620468099FFF77EFF8146FFF72CFC89
:1030C000B9F1000F0BD06D1C554503D90025761CB6
:1030D0005E4504D8266165617F1C4745E8D3FFF74C
:1030E0009EF80DF5017DBDE8F08F002801D0401E4F
:1030F000FDD170472DE9F04F92B00446FEF7C0FFB6
:10310000002875D0E0690190606A1090E26A0121A0
:1031100021EA02000790266B606B1190606D0A90A7
:10312000206C0E90606C089002200D900898032887
:1031300001D101200D90E068D4F8109062690392EB
:1031400000F001070122DDF840A062622046FFF78F
:103150003CFE089A069062B3032A2AD0012A00D0C6
:1031600000220C92022205920022531E4FF480602E
:103170000AEB8205521C2B608242F9D34FF02042A9
:10318000A26000252A4625653846FEF75CFE431CF2
:10319000099362610A9A82B109EB0200099A90428E
:1031A00000D20990099A90420CD3A2EB09020A922C
:1031B00008E000220C920122D5E74FF00042E260C5
:1031C000002222613846FEF732FE421C0292FEF7D0
:1031D00026FE099A0B90A2EB0908DDE90223D71A13
:1031E000B8F1010F05D000229446A8F1010009E0D2
:1031F00025E10198B8420DD901970BE0029B01F13E
:10320000010C1A4461468445F8D3D319019A9A42B5
:1032100000D90193019AE2610A9A626500201AE1DD
:103220000C98049011E1E26C2249521CE2640020E7
:1032300008630A9A0AB14F4608E02046FFF789FA68
:1032400007E027612046FFF74BFA7F1C0998874269
:10325000F7D3C4F81090039A62610E9860B3C84621
:103260004FF0000B069F039931E04FEA08620020FF
:1032700042EA013E17E0D7F800C0BCF1000F10D0C1
:10328000226D521C2265B5F5007F0AD20AEB850338
:103290004EEA00021A606D1C0AEB85026D1CC2F832
:1032A00000C03F1D401C0B9A904206E000FC5800F5
:1032B000300000F000F058000CE0DCD30298491C0C
:1032C0000BF1010B814202D3002108F101080198A2
:1032D0008345CAD3226D0AB1FE48AEE00122626284
:1032E0004FF0000847E00498089A80EA0800C007F9
:1032F0004FEA507C032A07D0BCF1000F04D0F14301
:103300000020F54AF7430DE03146F9E7079B33B15A
:1033100080EA0C01490701D4314600E0394642F801
:10332000041B401C0B9B9842F0D3C4F814800A98ED
:1033300008B14F4618E0089A2046032A02D0FFF74A
:1033400092FA14E0FFF7ACFA11E02761089803281D
:1033500021D00798384080EA080000F00100606141
:103360002046FFF728FA7F1C09988742EDD3C4F85E
:10337000109008F101080D988045B4D3039A62615A
:10338000109A62620E98E0B30020C846DDF818B0CB
:10339000039900904AE02046FFF727FAE3E7049AF2
:1033A000079B4A4008EA03035A40D2074FEA527E7D
:1033B000089A032A05D0BEF1000F02D0F243002084
:1033C00027E03246FBE7079B33B180EA0E02520743
:1033D00001D4324600E0F243DBF80030934215D0CE
:1033E000276D7F1C2765B5F5007F0FD24FEA086770
:1033F00047EA013707430AEB850C6D1CCCF80070D7
:1034000000E016E00AEB85076D1C3B600BF1040B36
:10341000401C0B9B9842D6D30098029A401C491C32
:103420000090914202D3002108F10108019A9042D4
:10343000B5D3226D2AB1A748401CA060002012B06D
:1034400051E6049A521C1046049205998842FFF4F2
:10345000EAAE0F98401C11990F908842FFF4E0AE3D
:103460000120ECE72DE9F0474FF001080446C0F8D1
:103470002C804FF0AA302063032060630026A663EF
:10348000266402206064E66026616661C01EE06119
:10349000E664266541F2883AC4F854A02046FFF756
:1034A00029FE0120FEF7CFFC471CB14600255646F9
:1034B00009E0C4F80C802561C4F8149066652046C4
:1034C000FFF718FE6D1CBD42F3D3BDE8F0872DE970
:1034D000F04F04468346D0F824A08048E0600020E6
:1034E00020614FF0AA36A06260623007A06000271A
:1034F0006FEA0608002507F0010965612046FFF71D
:10350000DAF8002841D005F00100484501D1E66213
:1035100001E0C4F82C802046FFF733F9002834D0AE
:103520006D1C082DE9D37F1C062FE3D36C484FF4A4
:10353000807101604FF00040E0604FF000074FF0F5
:10354000000507F0010965612046FFF7B4F800287F
:103550001BD005F00100484501D1E66201E0C4F846
:103560002C802046FFF70DF900280ED06D1C022D8F
:10357000E9D37F1C062FE2D3594900200860C4F824
:1035800024A05846FFF76EFF0120ACE510B5554C5E
:10359000DDF808C020706170A270E37084F804C088
:1035A00059E42DE9F14F83B00020039CE0642065CD
:1035B0006065401EA065E06546484738A060FFF79B
:1035C00027FA4FF0204201280CD042483130E06405
:1035D000FFF72AFA012807D03E4832302065801EC6
:1035E000A060E7E0E264F3E74FF020402065FFF7DA
:1035F000B7FBFFF725FA0420FEF7F7FC0720FEF7DC
:10360000FEFC0A20FEF7DEFC0120FEF7E4FC0220AF
:10361000FFF7B0FB4FF00009334850F829B0584687
:10362000FEF712FD4FF000082F482C3850F8280004
:103630000090FEF700FD00272B483C3850F827008B
:103640000290FFF7ADFB00262748683850F82600A7
:103650000190FEF7DEFC00252348843850F825A0B1
:103660005046FFF792FBFFF780FB606D401C6065E2
:10367000FFF7B8F9012809D1FFF777FA012805D13A
:10368000FFF773FBFFF70EFB01287DD06D1C072DA4
:10369000E2D3761C0B2ED7D37F1C042FCCD308F19A
:1036A0000108B8F10B0FBFD309F10109B9F10B0FF4
:1036B000B2D30A48E06000202061032060610398D3
:1036C000FFF7C7F90420FEF790FC0720FEF797FCF0
:1036D0000A200BE0500000F000F8580001000080C4
:1036E00080F05800503E2700903D2700FEF76AFC0E
:1036F0000120FEF770FC0220FFF73CFB4FF00009B1
:103700003F4850F829B05846FEF79EFC4FF000089D
:103710003B482C3850F828000090FEF78CFC00271E
:1037200037483C3850F827000290FFF739FB002655
:103730003348683850F826000190FEF76AFC0025EF
:103740002F48843850F825A05046FFF71EFBFFF79E
:103750000CFB606D401C6065FFF744F9012809D13E
:10376000FFF703FA012805D1FFF7FFFAFFF79AFAEE
:10377000012822D06D1C072DE2D3761C0B2ED7D347
:103780007F1C042FCCD300E018E008F10108B8F149
:103790000B0FBDD309F10109B9F10B0FB0D34346AB
:1037A0003A46294648460096FFF7F0FE1548A060C5
:1037B000FEF735FD002004B095E40320FFF7FBFA87
:1037C0004FF02040A060FEF72AFDFFF7CEFA4FEA47
:1037D0000A6040EA0B41019A009841EA0221014344
:1037E000A165E06D0299434661F31F60E0653A46CA
:1037F000294648460096FFF7C9FE0120DBE7000096
:10380000903D2700800000F00020401C1628FCDBC3
:10381000704710B50024FFF7F7FFFEF7CEFA641CDF
:103820000F2C01D20028F6D010BD00B54FF4B8021D
:103830009BB003215160FFF7E7FF4FF4B0004160F8
:10384000072313600160FFF7E4FF002802D06846F9
:10385000FFF7A7FE1BB000BD4FF4B80006210160C2
:10386000042101604FF4B00100204860704710B59A
:103870004FF4B00203211160022050604FF4B803EE
:103880005960FFF7C1FF072018605160BDE8104084
:10389000BFE74FF4B80106200860002008604FF42D
:1038A000B001486070474FF4B801886070474FF42A
:1038B000B800806870474FF4B00100F001008860E4
:1038C000704710B5FEF7F7FE4FF4B002012191608A
:1038D00010BD10B5FEF755FF4FF4B0020121916005
:1038E00010BD10B5FEF735FF4FF4B0020121916015
:1038F00010BD10B5FEF710FF4FF4B002012191602A
:1039000010BD10B5FEF7ECFE4FF4B002012191603E
:1039100010BD10B5FEF778FD4FF4B00201219160A3
:1039200010BD00006248016841F04001016001687B
:1039300041F020010160016841F0020101605C4931
:10394000002010310860704730B55A4CA04201D8B1
:10395000240100E0584CB4FBF0F010280CDBC41735
:1039600000EB1474251124F00F04041B186820F0D8
:10397000080040F0800006E005461868002420F0AA
:10398000800040F008001860C5F58070106004EBFE
:10399000D4704010221A42EA0010086030BD444939
:1039A000086820F023020A6070471EB5404C226868
:1039B00001F0230122F023020A4300926B4602AA7F
:1039C00001A9FFF7C1FF3A4902981C390860091F95
:1039D00001980860009820601EBD4FF44811012234
:1039E000C1F8BC20334B984201D8022000E00120EE
:1039F00041F8B40F4A60704784462D4810B5001D49
:103A00000168C1F381010229FAD1FFF7C8FF04461A
:103A10006046FFF7E2FF21466046FFF7C6FF012040
:103A200010BD70B5224901200C31086008254FF403
:103A30005814FDF700FBC4F88450D4F88400000744
:103A4000F7D4E069C0B270BD10B5FFF7EAFF0128F6
:103A500002D1BDE81040E4E710BD154901200C314A
:103A60000860164808210160006840F3C00000F1BA
:103A70000100704730B502244FF45813C3F8844056
:103A8000D3F88450AD07F9D52AB10425DD6102E0F1
:103A900010F8012BDA610A00A1F1010189B2F7D116
:103AA000C3F88440D3F884008007F9D530BD000006
:103AB0002004360060E31600006CDC02840036004F
:103AC0000C2070470720704740EA010310B59B07A0
:103AD0000FD1042A0DD310C808C9121F9C42F8D078
:103AE00020BA19BA884201D9012010BD4FF0FF3029
:103AF00010BD1AB1D30703D0521C07E0002010BD3F
:103B000010F8013B11F8014B1B1B07D110F8013BCA
:103B100011F8014B1B1B01D1921EF1D1184610BDAB
:103B2000032A40F2308010F0030C00F0158011F8E9
:103B3000013BBCF1020F624498BF11F801CB00F8C1
:103B4000013B38BF11F8013BA2F1040298BF00F815
:103B500001CB38BF00F8013B11F0030300F04780B0
:103B6000083AC0F0088051F8043B083A51F804CBF9
:103B7000A0E80810F5E7121D5CBF51F8043B40F8BF
:103B8000043BAFF30080D20724BF11F8013B11F8CA
:103B900001CB48BF11F8012B24BF00F8013B00F80E
:103BA00001CB48BF00F8012B70474FF000020429F9
:103BB000C0F0128010F0030C00F04D80CCF1040C2A
:103BC000BCF1020F18BF00F8012BA8BF20F8022B90
:103BD000A1EB0C0100F03FB85FEAC17C24BF00F804
:103BE000012B00F8012B48BF00F8012B704710B5DE
:103BF000203AC0F00B80B1E81850203AA0E81850E5
:103C0000B1E81850A0E81850BFF4F5AF5FEA027CA5
:103C100024BFB1E81850A0E8185044BF18C918C014
:103C2000BDE810405FEA827C24BF51F8043B40F8B5
:103C3000043B08BF7047D20728BF31F8023B48BF9A
:103C400011F8012B28BF20F8023B48BF00F8012BD8
:103C500070474FF0000200B513469446964620394F
:103C600022BFA0E80C50A0E80C50B1F12001BFF435
:103C7000F7AF090728BFA0E80C5048BF0CC05DF89B
:103C800004EB890028BF40F8042B08BF704748BFE9
:103C900020F8022B11F0804F18BF00F8012B70475D
:103CA000010800010600302018100C060401000075
:103CB000DE000000FA0000006700000019000000AC
:103CC000EF000000BE000000AD000000DE000000BC
:103CD00000000000080000000D00000010000000BF
:103CE0000000000005000000080000000D000000BA
:103CF00000000000040000000500000009000000B2
:103D00000B0000000F000000100000000800000081
:103D10000700000009000000060000000A00000083
:103D2000050000000B00000012000000130000005E
:103D30001100000014000000100000001600000038
:103D40000E000000180000000C0000001A00000027
:103D50000A0000000400000003000000050000004D
:103D60000200000014000000150000001300000015
:103D700016000000120000001700000010000000F4
:103D8000180000000E000000190000000C000000E8
:103D90000C000000090000000F00000006000000F9
:103DA00012000000030000001500000000000000E9
:103DB000180000001B0000001E00000000000000B2
:103DC00000000000000000000000000000000000F3
:103DD00000000000000000000000000000000000E3
:103DE00000000000000000000000000000000000D3
:103DF00000000000000000000000000000000000C3
:103E000000000000000000000000000000000000B2
:103E10000000000000000000FFFFFFFF00000000A6
:103E20000000000000000000000000000000000092
:103E30000000000000000000000000000000000082
:103E40000000000000000000000000000000000072
:103E500000000000004FF4B001032008607047002C
:083E60000006010401302700F7
:0400000500270401CB
:00000001FF
