:020000040050AA
:420000004252434D636667530000000032000000010104C05D000000030693761A9A812000011C00145000000000000004500000145000001000000000000000000000FE000014
:F01400004252434D63666744000000000B4500000303094359573230382A2A0016030200000201AC0200003200700F00006008000008006400FF0000009700000054006400FFFFFFFF1C00000058006400FFFFFFFF0C00000048046000FFFFFFFF66000000E8064100FFFFFFFF00400000C4036000FFFFFFFF1B00000068016000FFFFFFFF0300000070016000FFFFFFFF0B00000074016000FFFFFFFF0F00000078016000FFFFFFFF130000004C046000FFFFFFFF14000000B4014100FFFFFFFF0C91000044014100FFFFFFFF0A090000E4064100FFFFFFFFA8A50000C4074100FFFFFFFF6A720000C8074100FFFFFFFF7A700058
:F014F00000CC074100FFFFFFFFA4150000D0074100FFFFFFFF474C0000D4074100FFFFFFFFA37F0000D8074100FFFFFFFF7F760000DC074100FFFFFFFFEC0B0000E0074100FFFFFFFFEB55000050046000FFFFFFFF0300000080056000FFFFFFFF24000000090104020102000107D402FF060A233C5A789105AC038403C0038403C503E303E303E303E303E303E303E303E303E303E303E303E303E303E303E303470456048E046A04B5047E04560488046A04BF04043A043A043A043A043A043A400136015401540154014A01400145014A014A014A01400145014A014A014A01400145014A014A0190019001A401A401A401A4C6
:F015E00001A401B801B801B801043A043A043A043A043A043A030100006000059C02FFA002FFA402FFA802FFAC02FF0000600005C802FFCC02FFD002FFD402FFD802FF00006000034000FF4400FF5406FF0000410003F401FFFF3004FFFF8C03FFFF0E0E0D0D0D0B0B0C0F10CD1F630D0D0C0C0C0D0D0E1111CE1F6410100F0F0F0F0F101315CF1F660E0E0D0D0D18191A1D1FCF206612121111111515151819CF226611101010101E20202628CF2166D0006804776CD0007004776CD6007004F76CD6007004776CDC007004776CDC007004776C0207ED01FF0605E403E403E403E403E403FF03FF03FF03FF03FF0349044904495C
:F016D0000449044904880488048804880488040805080508050805080508050805080508050805143F143F143F143F143F143F020100006000059C023FA0023FA4023FA8023FAC023F00006000047C033F7803FF8005FF5406FF0000410004F801FF3FFC01FF3FCC00FFFF8C03FFFF0D0C0C0C0C1FCF24630E0D0D0D0D1ECF2464100F0F0F0F1FCF2266100F0F0F0F1FCF2666131415161821FF2666131415151626FF26664001AF0380B0776C4501CF0380B0776C4A01CF0390B0776C4A01CF0390B0776C5401350490B0776C5401350490B0776C0907E201FF0605E403E403E403E403E403FF03FF03FF03FF03FF03490449049E
:F017C000490449044904880488048804880488040805080508050805080508050805080508050805143F143F143F143F143F143F030100006000059C023FA0023FA4023FA8023FAC023F00006000038005FFC4033F0C00FF00006000015406FF0000410003F801FF3FFC01FF3F8C03FF3F0D0D0C0C0C2422A5610D0D0C0C0C2422456410100F0F0F2222256610100F0F0F241EE5661414141515241FE5661314151618241F05664501DF04B72C4501FF04772C4501FF04772C45010F05772C54018605772C54010804772C0007048300000004079801FF327F00006500005000004000003700002E00002800002500001E0000192A
:F018B0001200171200140000121200121600121800121A00101A000F1A000D1A000C1A000A1A00070600070800070B00071D00071E00041400031900031B00031C00031F00021B00021D00021E00021F00010000010400010600010800010A00010C00010D00010F00011200011400011600011801011A00011C00011C0003072A0100000001000000140A00040000000000000A02FE0BE4FE1C01E4FE1C010A02FE0BF1FF0F00F1FF0F0001021C0100000C0100000001000000010000000100000001000000010000000301F06F000427004FF62820C0F220000078012802D0B6F5800F03D3304600F075FC7CBD68469CF5E7FFBD
:F019A00099F5DCBF000000F035FBD4F57AFABAF514BE0FB500F0C9FC18B1BDE80F4052F67DBEBDE80F40301908EB040152F672BE000090F8F70020F0020085F8F700A06AC16E14F6DEB9BDE8F04F01F0C0B808D00FB4504601F047F9122805D00FBCBEF5E0BFB078BEF5D9BF0FBCBFF519B829B403EB42038CF8092093F900008CF80A005D788CF80B5029BC03EB42002FF6F9BC00000FB401F039FA0FBCBAF550BA034804F679FC01F06BFA04F660BD00000C680F004FF0010200F088FCF3F5DAB994F84A201AB194F85220BDF51BB901F06BFABDF51BB90000BDE8104001F06EBA2046BDE8F04101F00DBB000002B02046BDE8CC
:F01A900010402AF64EB901D1034810B1206844F6CABB44F6DDBB115D20009DF5E8F848F2DC20C0F23300016841F0010101609DF5E4B801F0F8FB002020709DF543B9016000B501F058FC00BD0000384601F06DFC92F54EFF93F5D6B8012801D992F5A5BE6846494601F064FC002802D0062592F5FCBE92F5C4BE411C00D10025284499F564FF92F5F1BE07D346F20C61C0F220010B88D11A92F55DB992F55DB900001CB003F0EBF8BDE8F08100003046BDE8F04101F07FBC0000204601F020FD2046F8F566BB2046BDE8304001F028BDBDE8F04101F040BD00000AD02DE9FF0F314601F0BAFD06D0BDE8FF0F301DC6F500BAC6F58C
:F01B80000CBABDE8FF0FC6F542BA18B1A562266362F645BF2820F8BD000002D03146D3F57EB92DE9FF0F284602F01BFCBDE8FF0FD3F584B900009360D36013610FB402F01AFC10B90FBC3AF661BE0FBCBDE8F08F000048F23810C0F23300006895F547BF0000BDE8FC4102F02ABE03B40C98C188022905D103BC0498002804D05BF633BB03BC5BF630BB5BF6D9B903B440F6DC30C0F22000016821F00701891D016003BC8FF565BD0000F0B54FF44E11D1F8602122F00F02ABF534BE000002F068BF4FF21353C0F207036168994203D0E569D61B0EF6BBBE0EF6B1BE0025804602F06DFF01460FF614BB2DE9F0414FF44E170428ED
:F01C700002D0012817D056E05349514807F537778860524951480860386840F004003860386820F0010038604E494FF00100086000F040FD3FE04B4807F5A077016821F080710160386820F47F4038604FF000007860464A4549484D116046494FF44414444E087028684FF001014FEA800000F11400B5F5B9FB41490860D7F8981141F04001C7F89811002156F8042B00EB8103491C1A600529F7D3002105E054F8042B00EB8103491C5A612A689142F6D3344940F2145008600020BDE8F08110B5314832490FF6F8FB4FF44E14D4F85C0120F48040C4F85C010020C4F8A0022D492B4808600DF666FF10B92C492A4808609FF788
:F01D600072F9AFF2FF00294908602949022008702A49284808602A48294901602A4981602B492948096848602B492948C1F8A0002A48016841F0007101600320C4F8E00201F07FFD26493520087025490120087026492448086026492548C1F8880110BD0000790D2700687E200025092700046B2000D86A2000DC0B2000DB382700EC0B2000040431006D1E2000D40B200064312000A40B20009031200064000000C8FA200064042000F4312000E40B20004C5820006C592000090A270098462000FD0F2700087D20000B102700A90D27006C712000B9D90908A04520002815320002622000876D2000C31D2700940C2000D11B13
:F01E50002700A47F2000054910B5D1E9003401228240134344EAE274C1E9003410BD8831200010B500F10904B0F809000021A0F54DFF40F6B8300EF6C8FED4F803004FF47A71B0FBF1F00022BDE81040282196F51EB82DE9F04781462D4E0020086037680C46154698462FB143462A4621464846B84720604046B8F1050F37D009DC012834D0022832D0032830D0B8F1040F2DD107E006282AD0082809D0B8F13F0F25D10BE0022D22D170682060B0681DE0262D1CD1F0682060306917E0A5F58070D93803D170692060B0696060B5F5ED7F05D0B5F5EE7F06D0162D13D007E0F0692060306A02E0F06A2060306B6060206800286A
:F01F40000BD143462A4621464846BDE8F0479DF543BD706A2060B06AEFE7BDE8F087A8F7200010B54FF4C0020020C2F8C803C2F8CC031A494FF4B4730C5CC2F8D043401C9842F9D310BDECE710B50446012801D0144900E014490868BAF59EFAB0F5F0F92046B0F5E0F92046B0F597F90F48007800280ED10E48806800280AD0C37B0C480D4A4FF482012BB10368C1F850318068106010BD4368C1F85031C068F8E7EC3B2700180920002009200078742000100E2000DCF72000E00441009B480178002907D19A490A688280C96C41804FF001010170704795480178012907D1944982880A604288CA644FF00001017070472DE98E
:F0203000F84F05464FF0000806F64CF80EF6F8F800908B48222101604FF446190024C9F800420421C9F804124FF448163466C9F800403220B2F5F2FD8348F0654FF445118020C860C820B2F5E9FD2878DFF8ECB14FF4CA0A4FF482074FF4C00660B3FFF7C1FFD7F8A80120F0180040F00800C7F8A80173483030016821F001010160C6F8BC4171480460D6F8FC0220F00C00C6F8FC02DBF8080058B10AF5B070026922F001020261026822F001020260CBF8084000980EF6A9F8BCE00020D3F5A4FE0120CBF808000AF5B070016941F001010161016841F001010160C9F800424FF08001C9F80412FFF771FFA87808B9C7F8F4413F
:F0212000E87801283CD002283AD0D6F8FC0220F00C0040F00800C6F8FC024F494FF0010AC1F800A068784C49801E083108606878801E091F08604949C9F8001000204FF47A734FF445120146401C994202D8D1680906F8D54FF448104FF400310166C820B2F564FDC6F8BCA13A483030016841F001010160E878012807D0022805D00CE0D6F8FC0240F00C00C5E7D7F8A80120F0180040F01000C7F8A80100980EF63CF8287880BBE0B2A97840F0010060F30704062919D2DFE801F003070E282B2F20F01C0018300EE0C4F3072040F0010060F30F2409E0C4F3072141F0010161F30F2440F0020060F30704E978C4F3072061F3D7
:F0221000830060F30F242879072810D80006800D404240B212E01AE020F0E000EAE720F0E0002030E6E720F0E000A030E2E7082802D0092805D008E095F9050042F68CF902E0A87941F683FC8046C9F80483044804600120BDE8F88F00001CFA2000A8014100C004410000020C0010843100010080007CB51B4C0546E06A44F2036120EA0100E06268469CF56AFBDDE90021501941F10001400B40EAC1406269490B050622F47F4242EA154508236561A269000A40EA01606FF30F0280B21043A061E06A40F44240E062C4F87C3104202060E06A40F00100E062606B20F0300060637CBD00002C81330010B50446042811D305F687
:F0230000E9FEFFF72EFE052C01D0AFF55DFFAFF52FFFAFF5ADFFB5F57AF8BDE8104005F6CFBC10BD000010B5044A04490548BAF5F3F80449087010BD00008C5D200044492000ECF720006471200002480078C0F3801070470000244B2000024908607047014948607047244B20002DE9F74FDFF8F0810446DFF8F0A1D8F800009346A04225D1794F3E6820E0351FA5421CD0284609F644F818B9284609F639F8A0B1BBF1010F03D1A87CA17C884207D2A87CA17C884209D99AF80010884205D3019800B105600120BDE8FE8F3668BE42DCD10026D8F800004FF0FF35B1464746F8B1C17C03291CD109F611F8032808D03868A17C6D
:F023F000807C884213D39AF8001088420FD33F68384607F6DCFCA84205D3A84207D1B97CB27C914203D905463E464FF001095348D0F800802CE098F80F00A8F10407032824D1387D0D2821D1384608F6E6FF03280ED0BBF1010F03D1B87CA17C884207D2B87CA17C884211D99AF8001088420DD3384607F6ACFCA84204D307D1B97CB27C914203D905463E464FF00109D8F800803B498845CFD13A48076818E0B97BA27C381F914212D9334A127891420ED3804606F657F8A84205D308D198F81210B27C914203D9054646464FF000093F682C488742E3D12C484FF00008076824E0381F08F10108BBF1010F03D1817CA27C9142C5
:F024E00007D2817CA27C914212D91E4A127891420ED3824606F62DF8A84205D308D19AF81210B27C914203D9054656464FF00009B8F1030F03D23F6817488742D7D1681C03D0182D05D3681E0DE04FF6FF70002609E0B9F1000F3146204602D007F601FD01E007F64BFCA18921B1814201D2401A00E00020019900293FF434AF0E6031E70000100E2000D00D2000000E2000080E2000F80D2000F00D200010B50DF6F1F813490870002010BD70B5054631F608F9002438B90F4890F83B00C00702D141F696F908B12C6010E00B4EB4600B4C206840F4807020600DF644FB2860206820F480702060AFF23D00B060012070BD29FA18
:F025D000200040102000087D2000DC0B200070B5554E0024307810B10EF64FFB04465248007838B95248524900680860524852490068086050F673FD514D40B1286830B1C07B10B10AF62FFE08B1686820B195F83900032813D015E028680168896901B18847286819F640FF286809F6EDF858B1286850F693FD50F6A4FD38B904E00AF646FF68B106F6D3FD06F685FC307828B10EF613FB011B0120DAF5E0F8012070BD06F6C6FF06F6C3FD012006F658FEEBE770B52C4E0024307810B10EF6FEFA04462A48007838B92E482A49006808602D482A490068086050F622FD284D48B1286838B1C07B012802D00AF6DDFD08B1686829
:F026C00020B195F83900032813D015E028680168C96901B18847286819F620FF286809F69BF858B1286850F641FD50F652FD38B904E00AF6F4FE68B106F647FD06F633FC307828B10EF6C1FA011B0220DAF58EF8012070BD06F674FF06F637FD012006F606FEEBE7AFF247110C480160AFF2AD018160704700006D1E200078742000E0F7200050014100E8F72000E0044100100E2000DCF72000E4F720005C80200010B5941DB6F57AF8082084F8290010BD70B598B0044600F1180506210CA8F6F5DDFD062221460CA8F6F5F7FD401C44D1594906220E462046F6F5EFFD401C3CD1062229460CA8F6F5E8FD401C35D1062231462E
:F027B0002846F6F5E1FD401C2ED10622294612A8F6F55CFE0622214606A8F6F557FE06A9062322460846F6F548FE2246062311466846F6F554FE6946062322460846F6F54EFE40496A46062324391046F6F550FE6A46062306A91046F6F541FE0622694612A8F6F5B1FD10B1002018B070BD0120FBE770B5A0B0044600F12005082110A8F6F583FD0822214610A8F6F59DFD401C44D12D4908220E462046F6F595FD401C3CD10822294610A8F6F58EFD401C35D1082231462846F6F587FD401C2ED10822294618A8F6F502FE0822214608A8F6F5FDFD08A9082322460846F6F5EEFD2246082311466846F6F5FAFD694608232246B4
:F028A0000846F6F5F4FD14496A46082324391046F6F5F6FD6A46082308A91046F6F5E7FD0822694618A8F6F557FD10B1002020B070BD0120FBE710B5094C206804F67FFD002804F1040002D0BDE8104099E7BDE810403CE7000088D720006CD8200010D9200030B500F10904002589B0B0F809002946A0F549FAE01CFFF783FF30B108236A46E11C084849F662FE05E0FF22202168462AF639F812256946284633F643F809B030BD0000ACE1200070B50446866A08F657FD002873D17E48638C032201783046A7F52DFE0121204608F649FE051E7BDD022D04DB204612F6D4FF00285FD1608C801FA8425CDD204608F632FF78B1B9
:F0299000681CE17B401029B1B16E19B194F84510002962D0218E81425FD8618E61B10DE096F8170110B1401E86F81701681C4110204612F606FF50E0A289C2B3624A127890424AD319B194F85200904245D3A06A90F8A40003F6CAFC94F8451031B190F8F710890705D4C069000402D5A07C872833D05548618E94F85220491C407B8A421DD250B1A07C452807D90021242003F6E7F90521242003F6E3F994F8450060B14B49608C0978884207D92A2014E000E02DE0204609F612F80FE045200CE050B1A07C0D2807D90021242003F6C9F90721242003F6C5F90D20A07494F84D00002815D0801E10F0FF0084F84D000FD1E07BF5
:F02A8000012804D0204608F6C7FE002807D12A462046BDE870400523022112F670BE70BD70B50446856A01200DF60EFA2868C1692846884794F8480028B194F84B00A074002084F84800204608F6A6FE50B9E07B70B10221204608F693FD401C4110204612F677FE0DF656F9C0B1E87B80B115E095F817010028F5D095F813110129F1D195F80D110029EDD1401E85F81701E9E701200CF68AFE00200CF661FEA06A90F8A40003F62BFC10F8F71F41F00201017070BD10B52C220A490B48D6F508F90A4909480860AFF2A501C161AFF20321416210BD7523200021672000381F20001D672000A4690F0090312000286720002DE988
:F02B7000FC4790F83970054600F11C06B81CC0B240F0800100243A4839F627FEA87B694609F66AFD0098DFF8DC8010F0030006D001281BD002281CD003280CD11CE00198A96A884200981BD9022109F65AF93060B8F80000706095F83A00DFF8AC9090B199F80210684609F612FA3BE001210098EBE70221009801E00121009809F641F93060A86AE6E799F8021099F803000144E8E7781C05F12C01C0B21CF697FF8046DDE9001040EA4120194901EB840188671849E0020860B8F14F0F09D208F1020040EAC42048F2801108431149091D08602819641C80F83E7099F80210684609F6D6F947466946304609F6FFFB012803D1BE
:F02C60004F2F01D2042CCCD385F842402046BDE8FC8704016000E00D2000721B200000E0310000E93100401D017A03290BD1084AD0F816109078B1F57A5F20F0C00004D0B1F5FA5F02D01220704740309070002070473E5D200010B501004FF0000007D0012904D1092102200EF6DDFAC0B210BD0821F8E710B50024801E082821D2DFE800F004060B0D0F111315022000E003200EF6EEF9C4B214E00420F9E70520F7E70620F5E70720F3E70820F1E709200EF6F9F94FF448114FF4E040086009200EF6F1F9204610BD10B54FF4481420680220FFF7D0FF00280ED0206845F6FF7108402060206840F4006020600020FFF7B3FFE6
:F02D5000002800D0012010BD70B500F10904407B0026154609280BD0FFF7DDFFA0B12079FFF7B0FF80B1E078FFF79DFF50B90BE00120FFF798FF002805D02079FFF7A2FF002800D06E7170BD1220687170BD70B54FF44816144630683168C0F30330C1F3031508B10B2001E00EF6EEFAA0713068B0F5E04F07D0072D15D2DFE805F012100E0C0A08060009200CE002200AE0032008E0042006E0052004E0062002E0072000E00820E0710020607170BD2DE9F041164D00F109070026B5F86400B7F803101446884202D15671BDE8F081002004F6C0F808B10C200DE0B7F80300B0FA80F1C1F1200290FAA0F1B1FA81F1491C072919
:F02E400002D212206071E7E7A5F8640085F84B2185F84A116671DFE700004010200010B529F6F7FE104901200870002010BD10B529F610FF002010BD10B5012806D00021AFF21300BDE810402CF6E5BC064C002020700146AFF237002CF6DDFC20780028FCD010BD00002AFA20002DE9F0410446164E164D174F24E01748E4F5BCFA00BB13491448E4F501FA288806EB8000006818B9114910200DF69FFC2888FF280CD20B2806D0B8F59FFF288806EB8000016805E0064800F04DF903E0396809B103488847641ED8D2BDE8F081FC690F00E4C820002CFA20008CC82000040000810749072081F84A010648027801209040401EAC
:F02F30004FF6C0721040A1F8640070470000401020002D5C200002480349008A086070470000E01420000483310010B540F67DFD0249086020F0004010BD502920002DE9F04740484149407E0978884202D90020BDE8F0873E4DE86BC00701D00120F7E70DF64EF981463B48DFF8E88000240278D8F8000060E000EB84010968E1B3A94259D000EB84000668488F06F5D076012854D1D1F8A80380BB301DE0F5D0F8D8F800004FF4727A00EB8407524639682748E2F510FE307C162810D12748D6F8E430A0F1E402EC3602F1EC0102F58272B34202D1C0E9001201E0C0E900213868D0F8A80310B91E48C5F8AC0346463868514639
:F03020000EF681FA306801E01DE01FE000EB84000560C5F8F051006800F5D070417D032906D0012906D0022909D0042909D00DE0104900E01049001DE0F580F806E00E49F9E70E49F7E7641C94429CDB48460DF6E3F88BE70000A0142000905C2000F816200094142000921420007C192000A01A2000000E2000F00D2000F80D2000080E20002DE9FC410646407C80460AF628FD0546404614F6C5F9070045D007F108000AF640FB040004D107F10C000AF63AFB0446346003203074207BF06004F11400B06070606168074609B12846884720464BF64BFE002827D0C068800724D595F8DD003C78012801D1062C1DD02021404658
:F03110002CF626FF95F8DD00012815D1052C13D10020CDE90000002295F8DE001346F2F55FFAE86B022140F00400E86395F8DE00BDE8FC41F2F53ABABDE8FC81000001460020097D132903D0072900D102487047014810387047643D270070B50546487D0C46122803D195F8DE002CF6DFFE21462846BDE8704028F610BB90F8DE002CF6D5BE70B50646057940880AF6B1FC04002AD00F2D06D0112D0CD03046BDE8704019F6EDBFE06BC0021ED5A06C40F40070A0640EE00D480078C00615D5606C80050CD594F8DE002CF6B1FE606C20F4007060642046BDE8704019F6FDBDA06C810502D520F40070A06470BDE014200070B5F5
:F0320000044604F667FF224E00204FF4461530742148016811B9D5F894100160BE20C5F894000020D2F507FE1C48016941F001010161016841F001010160A079C0B1607C012800D00020E7F5ECFFB27914494FF48200BAB1134A1268C0F850211248006808600B484BF69DFBBDE8704004F628BD2279617920684CF625F80B48808AC5F80403E2E70A4A1268C0F850210948E6E7000024F120003875200060016500E0044100DCF72000E4F72000E0142000E0F72000E8F7200010B501004FF0FF3007D00846AFF525FA4FF47A72002329F6F5FA0449CA788979BDE81040C2F3000294F5FEBDA80B20002DE9F04104460D46AFF559
:F032F0001DFB062805D00020294920B10888860002E00120F8E70E8826480021078825480068C830AFF531FA2449096889030AD52168B14207D93A18914204D9081A20600120BDE8F0812878401E28700020F8E770B5F0B91A4C2068C00201D592F55BFC206880030DD5164DA86850B192F504F9A868C00705D04FF44E10016841F0010101602068000304D5002092F514FD92F564FC002070BD0B48C16A44F2036221EA0201C1624FF00401016070470000800C2000420C200030FA2000A00B2000DC0B2000401C20002C8133000C490870704770B504460D46AFF5B1FA01460948062906D002782368A9188B4204D8002070BD3C
:F033E00000788200F6E7581A2060012070BD34FA20003D5B20002DE9F04105460C00164602D0B4F5FA7F02D90020BDE8F0810120FFF732FDE4F598F80CF60AFF0746FF233246214628469AF557FD044638460CF603FFE4F58BF80020FFF71EFD2046E4E70000F0B4DFF84CC000220225DCF8803018E013F81210B0F86860B14210D11146641E08E005EB410703EB41061F44491C3F88378089B28C42F4DCACF8864001E0521C92B2BCF886409442E2D8F0BCAFF5D4BB0C9420005DF6E8BE10B5040001D0606A18B90C4910200DF6B6F90CF6C0FE002284F821200CF6BFFE07498C4202D007498C4201D1206900E0606B616ABDE807
:F034D0001040084700000401008100F6200030F620002DE9F84F054690F87C6090F88E004FF0000A022801D185F87CA005F148000024DFF8A4814FF00409DFF8A0B1009033E0D5F8880000EB84010868A0B1EA6A904229D0C4EBC407D8F8702009EB87073A44126802B3C1F800A0F6F5D8FDD8F870003844076810E0211D01208840304202D156EA04000FD1C4EBC402D8F8701009EB82000844076837B195F88E30B5F88C2000210098B847641CDBF8000090F86B00C01CA042C4DCBDE8F88F10B590F88E10022909D144490622803148300BF652FF002801D14049C86710BD414B10B5024693F8AE30A1F14000834210DD3A4BF0
:F035C000C0EB401404EB80105B6903EB8000036833B112B10369934202D1828A8A4200D0002010BD2DE9F0410B46042115468046022A04D0032D04D0012D04D004E0082102E00C2100E006210B22F6F54AFE020049D00020958202F11603022D0BD00124032D11D0012D36D01C804046BDE8F0410021C4F531BA23F8020B98F88E10022900D088201860F0E723F8020B002118605860022018700420DFF850C0144F0FE0C1EBC106DCF8705000EB860635442D682DB11D780E1D04FA06F635431D70491C3D6895F86B50ED1C8D42E9DC187800F08E001870C9E723F8020B06480068008910381880C1E7BDE8F08168932000345FE1
:F036B0002000D8C02000385F200070B505460221F6F519FC040009D02079032806D10020C3F567FE3E212046C5F578F82846BDE87040CBF5D4BD70B50C46050006D00BF67EFC0C34A04201D3012070BD28460BF698FC03A14FF6F77099F59BFE002070BD00006C326361705F6C696E6B5F63686B5F706B745F73746172743A2064726F7070696E6720686369207061636B6574000000544810B50121C160406800B180475248016841F08061016010BD4E484D4980681431B0F922004989884200DCE8E7704710B5484C04F11402A068D388B0F9221010469942007B01DB207010BD1289914201DC0020F8E7891A4843991AB0FB9A
:F037A000F1F0F2E770B50DF65CFA3A4D28613B4890F8530072F6C5FA05F11404207872F637FAA96891F824200B8C01EB420215885B1B0B8410800A8C104402B20A8491F82400401CC3B281F824306079834202D3002381F8243092FBF0F300FB13221CB24C84B2EB500F01DB641C4C8470BD70B5214D0024143503E0FFF7C4FF641CE4B26879A042F8D8FFF7A4FF1A488268017882F825100121417070BD10B572F6DDFA154814304179102901D9102141711148002101708068018480F824104184BDE8104020210DF65FBE10B50A4CA06830B9262099F511FF2621A0600DF654FEFFF7DCFFFFF7C4FFBDE8104067E7024900205F
:F038900048707047000038FA2000DC0B2000246520000E49012008700F480D49C1600E4901660E4808218176032101770A214177142181774FF4FA61018442F6E061418400218184074940F8241C704700000062200079232700089A2000A9282700086020004535270010B50B4CD4F8940000280FD100F054FD04F14404A188D1F51FFC07490548886006494FF0FF3008600220207010BD000020E22000C93A270008E3200088FA200070B5044623480078800161F60AFC072090F7D4FE204D10B1296801B1884700F0BCFC6968002907D0042C01D9012000E00020BDE87040084770BD10B594F5B4FA352010BD10B52921A0B1FA
:F0398000826892B1134A136843F4807313600F4BC2685A60027812B1012A03D005E061F659FC01E061F618FC0146084610BD10B511F6D1F808B1002010BD00F0ACF908B1012010BD022010BD0000386220005CFA20004881330015490860704715480068704770B5124D00242868002808D06868012804D0D2F51DF9032802D002E0002070BD01240B4829680068884201D3012401E0012C08D1002001F04AFA01F0A3FB9AF5EBF801206860204670BD000064FA2000806320009AF5BBBF002801D09AF596BF7047002801D09BF592B87047002801D09BF51CB87047002801D09BF520B8704710B528B121B19BF5C8F808B1012009
:F03A700010BD002010BD002901D09BF527B87047002803D0002901D09AF5B5BF70470BF651BB99F501BE2DE9FF470CAC0646B4E82110002794E8000700970197029703970124771E1E2F02D88DF8006000E0002411B1CDF8011000E00024511E0F2902D88DF8052000E0002433B1834204D9AB4202D9ADF8063000E0002430B1984204D2A84202D9ADF8080000E000249D4204D2854202D8ADF80A5000E00024BCF1000F02D08DF80CC000E000248DF80D808DF80E908DF80FA024B1102269463248E2F569F804B02046BDE8F0872F480E2180F8511040F252314165FFF78EBE2C48006890F82500704729480068B0F92200704787
:F03B600010B50446082099F597FD002804D0244944604A680260486010BD22490860704722480068002800D00120704770B51F48007800282BD00DF664F81D490968401A4FF47A71B0FBF1F01349D1F8011088421DD3FFF7F7FDFFF7DCFDFFF7CFFD10490F48144D0A682AB102682B7892F825209A420CD000684C68297880F8251004E0616809B1287888472468002CF8D170BD0449086070474CFA20002465200040FA20006CFA20003CFA200044FA200039FA200048FA200038FA2000244A4FF48063401E13801023538040F233335360204B00F00700491E43EA002001F01F0140EAC1209060704791F556BC91F5CCBA91F5AF
:F03C5000E8BA91F590BD91F57DBD91F593BD91F579BC91F5AFBD91F5D9BB104810B581680123C1F30222521C03FA02F0401EC1F3C421491C0C4A8B4019021368A1F58071526841EA000143EA024201EA0201814203D191F565FA002800D0012010BD401C2000C50002006483330030B40C46102819D81049087004B101244C7002B101228A70002208E003EB420401EB42052488521CA5F80340D2B28242F4D3014630BC0120FFF792BF30BC704700F0D6BC00F0FEBC00F007BDA4FA200093F54ABF93F54EBF93F52ABF94F540B92DE9F04708ACB4E8E01094E80007314C2082A4F815102046E275007E13B140F0010001E020F09F
:F03D40000100207615B140F0020001E020F00200207616B140F0040001E020F00400207617B140F0080001E020F00800207684F819C0B8F1000F01D0012000E00020E0765FEA090000D0012020775FEA0A0000D001206077BDE8F08792F59BB892F5B0B81348C07E002801D092F50AB970470F48007F002801D092F50AB970470C48407F002801D092F50AB970470848C17E09B192F5F6B8017F09B192F5F9B8407F002801D092F5FBB8704792F510B90000D81D200038B5DBB2049C009471F6CBFC38BD0000C9B2C0B238F6D4BF674A40F28C4142F820104FF44E1202EB80004FF4C061C0F80012704770B5054600200C461646FD
:F03E30001070272D00D970BD284638F6F2FF010002D0284638F6B5FF5A2C1FD007DCA4B1572C1BD0582C19D0592C06D116E05B2C14D05C2C12D0832C03D001203070012070BD2846FFF7C9FFF9E72146284638F6D7FF4949042041F82500F0E7573CE1B2284600F0A6F8EAE72DE9F04714461F4606460D4691F5E2FC002868D03F4805EB061200EB8200610401680AD541F0080101603A462946304691F5E3FC24F4804402E021F00801016055EA06004FF44E1706D1D7F8000224F4807400F48070044305EB06104FF44E1202EB80002107804643F6F01911D5012E01D10A2D12D024F00801A0F80012D7F8D802800605D401205D
:F03F2000A84081B2304691F584FC4CF20F61012E0BD00CE0B7F868124CF2076001EA090120400843A7F86802E5E70A2D19D0A8F80042012E13D10A2D05D00B2D03D00C2D01D00D2D0BD1600409D5200507D444F400600A2D0FD007EB8501A1F84002BDE8F087B7F8682204EA010002EA09021043A7F86802E7E7B7F86822084002EA09021043A7F86802EAE700000084330038B5049C24B1002400944EF6E7FF38BD0124F9E74EF6B5BF4FF656B84FF662B80146012088404EF66FBF0146012088404EF628BF0F4A02EB8000026822F47F620260026840F2173303EB01110A430260704710B564290BD8B0FBF2F04FF6FF72141AC3
:F040100048436421B0FBF1F01C60101A586010BD00000084330070B50E46144904461248097B012916D04FF44E120021C2F8A010016821F002010160002071F606FC05463146204671F643FD0446284671F6FDFB20B270BD002070BD05480068704703484068704702488068704744803300146520002DE9F04104468068884616461F4640070BD500212346104A084660F69BFB0F4918200CF6AFFB60F606FC94B1B8F1000F0FD004F1300538462F7093F57BFC02463346414620460AF664FB6E600020BDE8F0812920FBE70000743D27000402008110B5A5F5F7F80648017841F00101017010BD0B4611461A46A5F5FABAA5F5CA
:F0410000D3BBCC58200010B50C4611F0E10F38D14CF618410C4234D02146FAF5BDF8A0F5F851A4392CD1184840F2A721A207018001D436220280620701D453220280620501D579220280220501D5B7220280620401D5E0220280220402D540F253120280E20502D440F26F120280A20502D44FF40A720280E20401D5A20400D40180002010BD41F6AD7010BD0000046220004949087000208860C8604860704770B5454D044600202978002923D04FF47A7684B1696839B10CF635FD3246002328F67DFB6968401A3C490831012C09D0022C0BD00DE00CF626FD3246002328F66EFB07E00A681044086002E04A6810444860002061
:F041F000686070BD30490A78002A07D018B18A680260CA68426000208860C86070472DE9F047294C05468846216F606E0023A0FB010240F2E241A0FB016702FB017100FB0311DFF8889030464A46E82328F63DFB2860216FA06E0023A0FB010240F2E241A0FB016702FB017100FB031130464A46E82328F62AFBC8F80000616E012011B1296801B92860A16E002905D0D8F80010002901D1C8F80000BDE8F08760F646BF10B504460020FFF781FF204610BD01207CE7AFF2150106484160AFF20F01816090F51BBD000074FA2000981E20000010A5D4BC3120003349086033490860704770B5202038F699FD0546212038F695FD9C
:F042E0000446282D01D1282C2BD04CF668FF60F62BFE60F633FE282D07D02021284638F658FD2021284638F693FD282C07D02121204638F64EFD2121204638F689FD1F48006808B14CF691FF1E480021026808464CF604FF18480068002802D0BDE87040C1E770BD70B50C461749150003D1884201D9002070BD0246002108464CF6EEFE1249D1F81C0200F0FE00284344B1012C02D0022C0AD107E0C0B240F0060005E000F0F900801C01E000F0F900C1F81C02012070BD000084FA20002C223500B8642000C4642000689D290000203500104A4AF6444092F8761009B101290AD192F8791041B1012909D0022903D0032901D113
:F043D0004BF6803070474FF47A5070474FF4FA407047034901EB40108189491C81817047000020E2200070B501200026174B0402174D566108291FD004DC05290FD0072904D114E0202906D0372901D0002070BD4FF4717101E040F2EC41518070BD0B490C3951601021517040F2045109E05560567040F2245104E055600821517040F2345151809360D46070BD1C803300B08333001CB568469AF582FA2B48DDE90021D0E900305A4041400A431BD003F620FC264902200839087025480CF69DFD244903200870244908702448016821F00701491C01609DF5D7FBAEF5B0F92049202008701CBD1F4919480CF66BFD1CBD1A48F3
:F044C00010B50068C0F30200012824D013480838017800291FD1012101701648016B21F003010163016841F004010160016B41F00101016303F6EEFD08489AF538FA0022AFF29F0106480CF607FBBDE81040084903480CF63EBD10BD000098FA2000C8312000BB0B2000BC0B2000DC0B2000E958200020A107003081330070472DE9F047DFF8B8A091469AF80020002A50D12B4E904600B32B4F0024386086F85F1016E0306E99F593F83A6804EB440502EB85014860306E0881A1F80A80A4B1102099F585F8396801EB85010860641CE4B296F85F00A042E4D8B9F1000F22D01A4F0024C7F8009019E018481060EEE7306E99F541
:F045B0006DF83A6804EB440502EB85014860306E0881A1F80A80ACB1102099F55FF8396801EB85010860641CE4B296F85F00A042E4D8AFF2AB000949086001218AF80010BDE8F08707481060EDE7A0FA200024652000F0642000FC64200048C42000F86420006CC4200070B5144606460D4691F525F9002820D0304691F50EF90121A940884304F00101A940084381B2304691F50DF90C49002305EB061203EB83000D5C5DB1084445886D0407D54078904204D103EB83000844047170BD5B1CDBB2082BEBD370BD0000FC0B2000084810B50068084CC00708D03FF698F906490988884201D30020206010BD0120FBE70000D882CC
:F046A000330000263500585B200010B590F523FF26490020088010BD90F5B3BD90F53CBF18B50088ADF800009DF800001F4AFF280FD0931C197881420DD99DF8011003EB40004C061146B0F80300098804D4014303E00020108018BD8143118018BD08B5684691F527F810B16846FFF7D9FF0E48008808BD38B50C4CA41C607850B1684691F518F802E06846FFF7CAFF9DF80000FD28F8D1A178044809B100210180008838BD91F518B891F51DB8A2FA20002DE9F0410E46174670B14FF47A7148430021AEF50BF805464FF44E14282E0CD22FB140F2092004E04FF0FF35F4E740F20B4004EB8601C1F80002002093F52AFC29490F
:F047900001200870284697F520F904F59874206840F0010020604FF4C8708DF59BFB206820F001002060206B20F0300040F010002063A06A20F4C060A062A06A20F00300A062206920F47F40206100206061E06920F00100E061012093F56DFBA06920F48070A061E06A20F48040E062BDE8F0810E480068400401D0002070470120704710B54FF44E10D0F82C1111F0040402D00421C0F82C1193F524F910B90CB1012010BD002010BD28FA2000588133002DE9FC41074668469AF592F8284EDDE9002430688168C068551A64EB0004A9F5A9F8022811D02348016811B3A5FB010304FB0131002205FB02111F4A1F4B12781B7884
:F048800012FB03F2D31720E0A9F59FF864214843A0FB0513002202FB053200FB04240D460CF6C6FB0A21B0FBF1F2002328460BE040F6EC30A5FB001304FB0030002205FB0204642200230846214627F6F6FF0B4A0023801841F10001520027F6EEFF31680968084439469AF5F1F8BDE8FC81EC582000C40B2000BA0B2000B80B200020A1070070B504460D461646D6F5D7F910B141F6A97070BD324629462046B4F5D7FA18B1A0F5F851A439F4D1034991F8D22381F8D02370BDE3F5CABB388520002DE9FC410546D0F878010C4620B12846BDE8FC415DF6EFBDA668A878B17888422AD10120C5F8780160795DF67EFBC5F86C01AC
:F0497000207B85F8850105F1E4006C2231460746E1F540F9D5F86C0100220E215DF67BFBA7602846DDF51FFC01461020CDE90040D5F86C2102B1521DE86E0423B3F517FDA660BDE8FC81292020700020607060795DF652FB217902B02246BDE8F0415EF60EBE2DE9FC410546B0F876000C4680070BD5192020700020607002B02846BDE8F0410A460F21DDF568BBA16805F1E4000E466C220746E1F5FDF8A7602846DDF5E2FB01460C20CDE90040E86E0C230022B3F5DDFCA660C4E7000070B5050041F6AD7417D00D4890F904308B4209DB90F91200884205DC934203DB904201DC8A4202DD41F6A87070BD284600F008F808B1A4
:F04A6000002070BD204670BD0000680B20002DE9FC410D46164607001BD0C7F506FC040017D039466846B5F548FC94F80201022812D0A08968B1ADF800008DF802508DF8036000236A4604214FF62F50B1F56DF828B10020BDE8FC81B4F87E00EAE70120F8E72DE9F0410D4616461F4608465BF6C7FC040015D05BF6E8FF2968C0F81110A988A0F81510817909B9A17981718680078002210172BDE8F041002204215BF693BC3046BDE8F041BDF564BF00000848016821F40071016007484FF0000181604FF005020260C1604FF003018160FEE700004881330000903200054A08461268D20704D0044A1268D20100D5092070476A
:F04B50000000D8823300DC0B20002DE9FC41064692F587FFD0BBCEB33078052836D1B6F8037000243846B9F52EFB69463846B5F5A8FADFF8508124E0544804EB840101EB8411D0F878067E2202EB810108440088B84214D14E480AF60DFC0EE02968062268460AF648FC28B9294648480AF6D4FB0AF637FA28460AF601FC0500EED1641CE4B2D8F80000007AA042D5D84148016809B1304688470320BDE8FC8170B53D484FF0FF346508006820B18047411C01D0002170BD2046294670BD2DE9F043A5B080460C464FF000090B2804D025B0BDE8F043CBF56EBC2079304D022827D12F4F386820B3A07A002600BB6846CBF590FBC9
:F04C40009DF80600A8B12296062222A90DF11A0023960AF6F8FB60B96846C7F516FB40B1D0F80E10CDF81A10408AADF81E008DF819602A6812B16946122090473E602A6812B121464046904725B04846BDE8F08338B50C4615490860114620460EF6C9FF98F5ADFB134A1349AFF29F0009F6C3FF92F5DFFE68B1FD20ADF8000094F875008DF8020000236A4603214FF62640B0F55CFF002038BD345F200038852000389D2000506220004C622000646220005462200055F103003FF1030010B52BF619F90149087010BD72742000F0B546189BB00446B6F5802F33D891B3D0F55BFC01282ED10020C34D059004900A902868089078
:F04D30000BF67EFA07460CF67EF94FF47A71B0FBF1F02968BC4DC1F848010AE0600A03902868401C28606846D7F508FD58B104F50074B442F2D338460BF666FAD0F55BFC01201BB0F0BDD0F556FC38460BF65CFA0020F6E72DE9F04F074600259DB088461646800741D1B819B0F5802F3DD8B6B3D0F518FC012838D10BF642FA83460020A04C059004900A90206808900CF63BF94FF47A71B0FBF1F0216800244FF4007AC1F8480131E03819400AA6EB04095246039091451DD29448007888B11BA91046D0F5CBFB05000BD051460CF694FB08EB04014A462846E0F5FDFE09950CE004E0D0F509FC58460BF60FFA00201DB0BDE8F4
:F04E2000F08F08EB0400099083480168491C01606846D7F5A4FC04F50074B442CBD325B19DF86C102846D0F5E9FBD0F5ECFB58460BF6F2F90120E1E770B50225784C0C280ED2DFE800F0060611161116111611161E20207828B1012802D1D7F54DFC257070BDD7F527FCFAE7D7F53BFC0120207070BDD7F51FFC2570BDE870400120D7F55FBC002000E00220BDE87040FFF776B92DE9F04100249CB00646A046D0F58AFB012874D1012E02D10BF6B2F98046D0F56CFB01286AD1564F5A4D012438680890286809900CF6A7F84FF47A71B0FBF1F03968C1F848014F480168491C01606846F3F528F900B900246846F3F534F800B9EC
:F04F100000240420D0F5D8FB4FF40077042805D00620D0F5D1FB06281BD035E004233A4600202968D0F5B4FB002206202968D0F5FDFD0620D0F5C0FB062824D1002204202968D0F5F3FD0420D0F5B6FB04281AD11AE006233A4600202968D0F599FB002204202968D0F5E2FD0420D0F5A5FB042809D1002206202968D0F5D8FD0620D0F59BFB062800D000240520D0F595FB052806D00720D0F590FB07281CD036E03CE005233A4600202968D0F572FB002207202968D0F5BBFD0720D0F57EFB072824D1002205202968D0F5B1FD0520D0F574FB05281AD11AE007233A4600202968D0F557FB002205202968D0F5A0FD0520D0F502
:F050000063FB052809D1002207202968D0F596FD0720D0F559FB072800D00024012E02D140460BF609F9D0F5FEFA1CB02046BDE8F081A85820008063200060042000E80B2000B058200070B50BF60BFE144B1968884201D9411A03E04A1C1BD0C9430144104AD2E9004505FB0141116018609068A2F18C02884210D802F14802081A50641188106D08441065BDE870404FF48040D0F5F2B940F27121E2E770BD000088FA2000ACE22000D0E84F2F0A44C0E8432F002BF8D110467047BDE8F04700F001B800002DE9F041224F05460E46B868A32804D02846BDE8F0418CF504BF1E482C03854203DB1D4910200BF696FB1EB9012198
:F050F0001B48FFF7D8FF7868DFF868C0DCF80020DCF80410002804DD411B322901DAA0F13205411B0BE07B68834206DD7868DCF80030DCF804509B1A5918A4F101047B68A3EB0103002B01DD002CECD1002E05D1711EBDE8F0410548FFF7ADBFBDE8F081000000A03200400D03000403008158592000300C2000002070470301D003EC3B27002C0600002C0E00042D0E00092E0E000D2E0E02112F160215301602193016021C31160220321E0224321E0227331E022B3426022E342604313526043435260438362E043B372E043D372E04403836044339360446393604483A3E064B3B3E064D3B3E064F3C3E06523D4606543D4646
:F051E00006563E4606583F4E065A3F4E065C404E085D4156085F4156086042560862435E0863435E0865445E0866456608674566086846660A69476E0A6A476E0A6B486E0A6B49760A6C49760A6C4A7E0A6D4B7E0A6D4B7E0A6E4C860C6E4D860C6E4D860C6E4E8E0C6E4F8E0C6E4F8E0C6E50960C6D51960C6D519E0C6C529E0E6C539E0E6B53A60E6B54A60E6A54AE0E6955AE0E6856AE0E6756B60E6657B60E6558BE106358BE106259BE10615AC6105F5AC6105E5BCE105C5CCE105A5CCE10585DD610565ED612545EDE12525FDE125060E6124E60E6124C61E6124962EE124762EE124463F6124264F6143F64FE143C65FEED
:F052D0001439660615366606153300000000000000000D1C2700000000000000000000000000ED1B2700000000000A5741524E494E47212120616E206163746976652074696D657220617420616464726573732030782578206973206265696E67207265696E697469616C697A65640A00000301B0069CF7200000000000000000000000000000000000E1112700030046008513270043000000DB1727000500060021182700030008007F18270005000600F5082700070000000A070000050700000DDB000008DB0000FC0260000C000000FF00000000000000BC01600001000000FF00000000000000CF540C00BCBCBCBC43430A
:F053C0004343000000000C01600000000000FF0000000000000017580C00BCBCBCBC43434343000000006001650001000000FFFF0000000000007001650001000000FFFF000000000000740060001B000000FF00000000000000B804410000900000FFFF00000000000060044100C0500000FFFF000000000000A8014100160000001E0F000000000000BC02600003000000FF00000000000000E405410000000000FFFF00000000000020006000BE000000FF000000000000001C006000FF000000FF00000000000000180060000F000000FF0000000000000014006000FF000000FF0000000000000024006000FF000000FF0028
:F054B0000000000000002C00600030000000FF00000000000000DC04600008000000FF00000000000000E804410000C0000000C000000000000030044100800000008000000000000000BC014100000300000003000000000000640441003A400000FFFF000000000000FC04410000000000FFFF0000000000003406410000480000FFFF00000000000015560C00BCBCBCBC434343430000000041560C00BCBCBCBC434343430000000007570C00BCBCBCBC4343434300000000EF550C00BCBCBCBC434343430000000059550C00BCBCBCBC4343434300000000C004410021000000FFFF0000000000006D560C00BCBCBCBC4343E0
:F055A00043430000000001540C00BCBCBCBC43434343000000000000000000000000000000000000000000000000000000000000000000000000000000003E0500000000000000000000000000000000000000000000000000000C60EA000008800C0807A406640308010000000000000000000000000000000000000000000000000000000000000000000000000000000000000000FFFFFFFF00000000000000000000000000000000000000000000000004000001000400020000800000000000000000000000000000000000000000000000000003015CC8FA200070B50024124D1CE0124801190A68C2F31700120E05D0933B
:F05690000706D04968FDF574FA0EE0496801600BE012F00C0F03D04968FDF57EFA04E0D20602D54968FDF582FA0834AC42E0D3BDE8704061F04FBD0000F801000020FB20000301FC0320FB2000050E02010B0A2700C9F40B01B10A2700D9A300020104270059B002022904270031310C023504270019B10B01591327002148080255042700F1E508026904270039F4020271042700A0FE090291042700F9A80202B5042700894F0702C104270091380602D504270020D70202E104270009360B02F904270055CF0702F11927003D6108020105270055710A020D05270069DD0B01811C2700B54C0B021905270009D700022D05273D
:F057800000C9D70002450527004DDD0001691D270009DF000251052700113700025D052700B93200026B052700753300028905270061280002990527004D420402B105270029430401073827005DCB0002791E2700F9670202BD05270099D107011D1F2700CD890601651F27009D8C0602C90527009D9E0602D505270035950602DF052700FD690302E9052700E8DA030425B10121513C0D01B9232700454300011B29270051640001052B27009D340D020D0627001D3904021D06270009B30A023906270029F607023B3B2700154300019930270035240B01FD302700ED6400025506270061690001D1312700F5640001833227AB
:AB587000001D6A000193322700F9D5000265062700D50F0D01C1332700B10E0D0155342700E1BC0C026D0627006D0100028D06270015C30102A90627008D1B0002BD06270049F40702C10627000DFD0702DB06270055F10301DD35270091EE03016F3627002B011874312000034901228240096801EA020070470000883120002B010C8831200000000000000000002E010C01C0200000C0200000F630BF060104AF072700060104B5152700FE00005C
:00000001FF
